:020000040000FA
:201FFD004C0B20F25604010B200000000000640120E226A9A085F0A90085F1A9378D00D02E
:20201D00A9008D01D09C04D0A9888D0FD0A9888D0ED0A9888D0DD0A9548D02D0A9068D03BD
:20203D00D0A9008D88D2A9678D89D2A9018D8AD2A9008D84D2A9538D85D2A9018D86D2A9F4
:20205D00008D80D2A9008D81D2A9018D82D2A9018D18D2A9148D1CD2A90F8D1ED2A9B08DFC
:20207D0019D2A97A8D1AD2A9018D1BD2A9018D0CD2A9148D10D2A90F8D12D2A9588D0DD2C1
:20209D00A9788D0ED2A9018D0FD2A9008D00D2A9148D04D2A90FA9008D01D2A9768D02D214
:2020BD00A9018D03D2A9018501A9008580A9088581A9008582A9D08583A200A0228C432BD3
:2020DD00A000B1809182C8C004D0F7E8EC432BF01D18A58069048580A5816900858118A55C
:2020FD008269048582A583690085834CDD206401A9008580A9058581A9C164828583A0002C
:20211D00A203A9018501B1809182C8D0F9E681E683CAD0F26401A9118DA0DAA9088DA1DABD
:20213D00A9B18DA2DAA9018DA3DAA9608DA4DA8D3C2BA9018DA5DA8D3D2BA9328DA6DA8D43
:20215D003E2B9CA7DA9C3F2BA9558DA6D9A200A9009D00D49D00D5E8E01890F3F0F1A900B1
:20217D00098085F320F0FFB004690185D020D226A200BD58159570E8E009D0F69C00D2A928
:20219D00018DA6D6A90F8D18D48D18D5A9398D05D48D05D58D0CD48D0CD5A9098D06D58D3C
:2021BD0006D48D0DD58D0DD4A9118DA0D9A9088DA1D9A9818DA2D9A9018DA3D9A9488DA4CC
:2021DD00D99CA5D99CA7D9A200A9389D932AA9009DA72AA9159D7F2ABDCF2A9DBB2ABDE303
:2021FD002A8538A9DA8539A000A9119138C8DA8A0AAABDF72A9138C8BDF82A9138FAC8A915
:20221D00019138C8BD932A9138C8A9009138C8BDBB2A9138C8A9009138E8E014F00280A92E
:20223D00A9018D25299C23299C24299C21299C22299C51299C5229A9048D5429A9098D55E6
:20225D0029A200ADA4D629031869049DBB29ADA4D62903A8B9262B9D9329A9609D6B29A9FC
:20227D00019D7F299D5729A9009DA729E8E01490D220C522AD1F29F0034C8E22A9018D0068
:20229D00D2A200AD56296978852220C522AD5629C522D0F620C522AD462BF0F88E462BEE1F
:2022BD001F29EE20294C9921A5F2100B2000FFB00620D5224CC52260A5A0C952F05BC904D3
:2022DD00F02AC908F005C90AF01E60A5A6A5A5C910D004A9018017C90ED004A902800FC98F
:2022FD0020D004A910800760A9008002A5A485D89C442B9C452B9C462BA5D82901F005CECE
:20231D00452B8009A5D82902F003EE452BA5D82910F005A9018D462B6020D22620FB272081
:20233D005A23206A26EE5629AD1F29F00F206E2520DE23206324206727202F2760AD2A2BF1
:20235D00D00FAD452BF076C901F04EC9FFF05E806C18AD212B6D2B2B8D212B8DA6D9EE2429
:20237D002BAD242B29030AAAAD2B2B300EBD2C2B8DA1D9BD2D2B8DA2D9800EBD342B8DA1E8
:20239D00D9BD352B8DA2D98000AE232BBD262BCD212BD0299C2A2B8024AD232BC903F01D1D
:2023BD00EE2A2BEE232BA9028D2B2B8010AD232BF00BEE2A2BCE232BA9FD8D2B2B604C6277
:2023DD0024AD462BF05AAD252BC915D0F120F0234C6224A200A9018D472BBD7F2AC915D054
:2023FD0036BDBB2ACD212BD02E8E252BA9019D7F2AA9409D932ABDE32A8538A9DA8539A058
:20241D0004BD932A9138A9088DA1D9A9958DA2D9A9018DA3D98008E8E015D0B98E252B607B
:20243D00AD472BF020AD252BAAFE7F2AA9158D252BA9088DA1D9A9998DA2D9A9018DA3D9B2
:20245D009C472B800060A200BD7F2AC902D02218BD932A69019D932ABDA72A69009DA72AF1
:20247D00BD932AC960900DBDA72AF008A9FF9D7F2A4C6525A000BD932AD96B299017BDA723
:20249D002AD97F29D00FBDBB2AD99329D007B9A729D0028008C8C015D0DC4C2925A901997E
:2024BD00A729A9389D932AA9009DA72AA9159D7F2ABDCF2A9DBB2AF818AD212969018D2182
:2024DD0029AD222969008D22298680AE252918AD23297D5A2B8D2329AD242969008D242952
:2024FD00D818AD512969018D5129AD522969008D5229BD542BCD5129D010EE5329EE252995
:20251D00AD2529C906D003CE2529A680BDE32A8538A9DA8539A000A911C8DA8A0AAABDF709
:20253D002A9138C8BDF82A9138FAC8A9019138C8BD932A9138C8BDA72A9138C8BDBB2A91C1
:20255D0038C8A90091388000E8E014F0034C652460A200BD5729D0034C6126BDCF29F00638
:20257D00DECF294C6126BDA729D07FBDBB299DCF2938BD6B29E9019D6B29BD7F29E9009DF4
:20259D007F29FEF72918BDF72929037DE3290AA8B91F2A852EB9202A852F20D125BD6B2929
:2025BD00C95BD00DBD7F29D008A9019DA7299C1F294C6126BD0B2A852CA9D9852DA000A9D2
:2025DD0011912CC8A52E912CC8A52F912CC8A902912CC8BD6B29912CC8BD7F29912CC8BDEA
:2025FD009329912CC8A900912C60A9009DCF2918BD6B2969019D6B29BD7F2969009D7F2962
:20261D00DEF72918BDF72929037DE3290AA8B94F2A852EB9502A852F20D125BD6B29C961E6
:20263D00D022BD7F29F01DA9009DA729ADA4D62903186D54299DBB29ADA4D62903A8B92653
:20265D002B9D9329E8E014F0034C702560AD402BD01E38AD3C2BE9018D3C2B8DA4DAAD3DA4
:20267D002BE9008D3D2B8DA5DA3020A9808D402BCE402BAD422BD02B38AD3E2BE9018D3E66
:20269D002B8DA6DAA9068D422B8018A9608DA4DA8D3C2BA9018DA5DA8D3D2BA9328DA6DA09
:2026BD008D3E2B38AD412BE9018D412BAD422BE9008D422B60E6D0A5D085F485F5A900852A
:2026DD00F320F0FF60A9028501A200A9209D00C09D00C19D00C29D00C39D00C49D00C59D05
:2026FD0000C69D00C79D00C89D00C99D00CA9D00CB9D00CC9D00CD9D00CE9D00CD9D00CEE6
:20271D009D00CF9D00D09D00D19DC0D1E8D0BC640160AD5329F0329C5329AE2529BD482B5F
:20273D00AAA9FF9D7F2ABDE32A8530A9DA8531A000A9009130CAE0FFD0E7AE2529BD4E2B90
:20275D008D5429BD602B8D552960A9028501AD24294A4A4A4AAABD26298D26C0AD24292900
:20277D000FAABD26298D27C0AD23294A4A4A4AAABD26298D28C0AD2329290FAABD26298D43
:20279D0029C0AD22294A4A4A4AAABD26298D43C0AD2229290FAABD26298D44C0AD21294A15
:2027BD004A4A4AAABD26298D45C0AD2129290FAABD26298D46C0AD2529290FAABD26298DE8
:2027DD0010C0A200BD30299D1AC0BD3B299D38C0BD46299D05C0E8E00B90E9640160AD20BB
:2027FD0029F00BEE3009AD3009CD5529F001609C3009A000B170C9AAF034C9A8F016C9FF83
:20281D00D017A9348570A9098571AD1F29D0E39C202980DE9C04D48015AA9C04D4BD8808DB
:20283D008D00D4BD89088D01D4A9118D04D418A57069018570A57169008571A000B172C9BE
:20285D00AAF02CC9A8F00EC9FFD00FA93D8572A90C857380E69C0BD48015AA9C0BD4BD8815
:20287D00088D07D4BD89088D08D4A9118D0BD418A57269018572A57369008573A000B17420
:20289D00C9AAF02CC9A8F00EC9FFD00FA9468574A90F857580E69C04D58015AA9C04D5BD90
:2028BD0088088D00D5BD89088D01D5A9118D04D518A57469018574A57569008575A000B1D6
:2028DD0076C9AAF02FC9A8F00EC9FFD00FA94F8576A912857780E69C0BD5801838E926AAA8
:2028FD009C0BD5BD88088D07D5BD89088D08D5A9118D0BD518A57669018576A57769008508
:20291D0077600000000000000130313233343536373839202020202053434F52453A4861B6
:20293D00707079204B6964733A20202020204C6576656C3A00000000000001010101010164
:20295D0001010101010101010101010101016060606060606060606060606060606060608C
:20297D00606001010101010101010101010101010101010101015585B5E55585B5E55585A4
:20299D00B5E55585B5E55585B5E5000000000000000000000000000000000000000003068F
:2029BD000404070201040801030205090A05020408020000000000000000000000000000A9
:2029DD000000000000000004080C10140004080C10140004080C1014000400000000000022
:2029FD000000000000000000000000000000000810182028303840485058606870788088F2
:202A1D00909800000004000800040020002400280024004000440048004400600064006895
:202A3D000064008000840088008400A000A400A800A4000C001000140010002C00300034A5
:202A5D000030004C005000540050006C007000740070008C00900094009000AC00B000B4D9
:202A7D0000B000000000000000000000000000000000000000003838383838383838383859
:202A9D003838383838383838383800000000000000000000000000000000000000000000E9
:202ABD000000000000000000000000000000000000005585B5E55585B5E55585B5E55585C3
:202ADD00B5E55585B5E50008101820283038404850586068707880889098089D08A108A5E0
:202AFD0008A908AD08A108A908AD08A5089D08A5089D08A108AD08A908A908AD089D08A1DD
:202B1D0008A5480055000000155585B5E50000087D0881088508810889088D0891088D004D
:202B3D000000000000000000000000000003070B0B0004030201000014283C64FF00010270
:092B5D00040A1500090908080723
:200500000000000000000000001818181800180000666666000000000066FF6666FF66009B
:20052000183E603C067C180000666C18306646001C361C386F663B0000181818000000006B
:200540000C18303030180C0030180C0C0C18300000663CFF3C6600000018187E18180000EE
:2005600000000000001818300000007E0000000000000000001818000003060C18306000B0
:20058000007CFECEC6E6FE7C003878783838FEFE007CFE0E3C78FEFE00FEFE0C1CC6FE7CBD
:2005A000001C3C7CECFEFE1C00FEE0FE06E67E3C003EFEE0FEE6FE7C00FEFE1C38707070C7
:2005C000007CEE7CEEEEFE7C003C667E3E0E7E7C00001800001800000000180000181830D1
:2005E0000C18306030180C0000007E007E00000030180C060C1830003C66060C1800180065
:20060000003C666E6E603E0000387CEEEEFEEEEE00FCE6E6FCE6E6FC007CFECEC0CEFE7C78
:2006200000F8FCE6E6E6FCF800FEFEE0F8E0FEFE00FEFEE0F8E0E0E0007EFEC0CECEFE7CAA
:2006400000EEEEEEFEFEEEEE00FEFE383838FEFE001E1E0606C6FE7C00E6EEFCF8ECEEEE40
:2006600000E0E0E0E0E0FEFE00EEEEFED6C6EEEE00CEEEFEFEFEEEE6007CFEEEEEEEFE7C84
:2006800000FCEEEEFCE0E0E0007CFEEEEEECFE7600FCEEEEFCECEEEE007EFEF07C0EFEFCA4
:2006A00000FEFE383838383800EEEEEEEEEEFEFE00EEEEEEEEFE7C3800C6C6D6FEFEEEC608
:2006C00000EEEEFE38FEEEEE00EEEEFE7C38383800FEFE3C78F0FEFE3C30303030303C002C
:2006E000006030180C0603003C0C0C0C0C0C3C0000183C66000000003399CC663399CC66D3
:200700000018181800000000003C3E063E667E3E0070707C76767E7C00003E7E60607E3E37
:20072000000E0E3E6E6E7E3E00003C666E7C703E001E387E3E38383800003C7E663E067CF3
:200740000070707C7E7676760038007838387C7C000E000E0E0E3E3C0070767C787C767651
:200760000078383838387C7C0000667F7F6B636300007C767676767600003C7E66667E3C8A
:2007800000007C7E667C707000003E7E663E0E0E00007C7E7670707000003E703C0E7E7C6F
:2007A0000038FE3838381E0E0000767676767E3E00006E6E6E7E3C180000636B7F3E3E3680
:2007C0000000667E3C3C7E66000076767E3E1C7800007E7E1C387E7E0C10102010100C00D9
:2007E000101010101010101030080804080830000000304906000000080404081010080036
:2008000000000000342022FF3C2845FF313966FF3B568FFF2671DFFF66A0D9FF9AC3EEFF30
:2008200036F2FBFF50E599FF30BE6AFF6E9437FF2F694BFF244B52FF393C32FF743F3FFF01
:20084000826030FFE16E5BFFFF9B63FFE4CD5FFFFCDBCBFFFFFFFFFFB7AD9BFF877E84FFB0
:200860006A6A69FF525659FF8A4276FF3232ACFF6357D9FFBA7BD7FF4A978FFF306F8AFFB8
:20088000598CC7FF411F1FFF180238025A027E02A302CC02FD02230353038603BB03F403D3
:2008A00030047004B404FC0447059805FA054706A7060C077707E9076108E1086809F809B1
:2008C0008F0A300BF50B8F0C4E0D190EEF0ED30FC310C311D112F0131F156116EA171E19D8
:2008E0009D1A321CDF1DA61F87218623A325E0273F2AC22CD52F3D323A356438BE3B4C3FB9
:200900000F430C47464BC04F7E548459AB5F7A64746AC8707D77987E1F86198E8C96809F4E
:20092000FCA808B356BFF5C8E8D491E1FBEE31FD00000000A8AAAAAAAAAAAAAA48AAAAAAAD
:200940004CAAAAAA4EAAAAAAAAAAAAAAA8AAAAAA54AAAAAA4CAAAAAAAAAAAAAAA8AAAAAAC9
:200960005CAA56AA5AAA56AA52AAAAAAAAAAAAAAAAAAAAAA5AAAAAAAAAAAAAAAAAAAAAAA25
:20098000AAAAAAAAAAAAAAAAAAAAAAAAAAAAAAAAAAAAAAAAA8AAAAAA5AAAA8AA5AAAA8AABD
:2009A0005AAA5CAA68AAAAAAAAAAAAAAAAAAAAAAA8AA64AA62AAAAAAAAAAAAAAAAAAAAAA67
:2009C000A8AA52AA68AAAAAAAAAAAAAAAAAAAAAAA8AAAAAA5AAA5AAA5AAA5AAA5A5C56AAA7
:2009E00056AAAAAA56AA56AA56AA56AA565A5CAA5AAAAAAA5AAAAAAAAAAAAAAA60AAAAAA37
:200A0000AAAAAAAA6EAA6EAA6E7274AA72AA6AAA68AAAAAA68AAAAAA5AAAAAAA72AAAAAA3C
:200A200068AAAAAA78AA6EAA6EAA6A6864AA72AA74AAA8AA62AA60AA62605CAA626262622C
:200A400062605CAA62AA5AAA5AAA54524EAAAAAA4EAAA8AA6AAA6AAA6CAAAAAA6AAA6AAAC4
:200A60006CAAA8AAA8AAAAAAA8AA5EAA5CAA606466AAA8AA6AAA6AAA6A6864AA6AAA6AAAB2
:200A80006A6864AA6A6864AA6A6864AA74726EAA74726EAAA8AAAAAAAAAAAAAA60AA60AA58
:200AA00062AAA8AA60AA60AA62AAA8AA626262AA62AA605C5AAA52AAA8AAAAAA5CAA5CAA1C
:200AC0005C5A56AA5C5C5C5C5C5A56AA5CAA52AA52524E4A48AAAAAA5CAAA8AA6AAA6AAA36
:200AE0006CAAAAAA6AAA6AAA6CAAA8AAA8AAAAAAA8AA5EAA5CAA606466AAA8AA5CAA5CAAC4
:200B00005C5A56AA60AA60AA605C6EAA6A6864AA6A6864AA74726EAA74726EAAA8AAAAAAD5
:200B2000AAAAAAAA5AAA5AAA5AAA5AAA5A5C56AA56AAAAAA56AA56AA56AA56AA565A5CAA3D
:200B40005AAAAAAA5AAAAAAAAAAAAAAA60AAAAAAAAAAAAAA6EAA6EAA6E7274AA72AA6AAAD9
:200B6000A8AAA8AA44AA44AA3EAAA8AA444444444EAAAAAA5CAA52AA52524E4A4848484801
:200B800052AAA8AA78AA78AA78AA72AA78AA7878787672AA627272AA72AA6C6A66AA74AA59
:200BA00074AAA8AA6AAA6AAA6A6864AA6AAA6AAA6A6864AA6A6864AA6A6864AA74726EAAF7
:200BC00074726EAAA8AAAAAAAAAAAAAA60AA60AA62AAA8AA60AA60AA62AAA8AA626262AA15
:200BE00062AA60A85AAA52AAA8AA72AA68AAAAAA68AAAAAA68AAAAAA68AA6AAA64AAAAAAB9
:200C000064AAAAAA64AAAAAA64AA6AAA68AAAAAA68AAAAAA68AAAAAA68AA6AAA64AAAAAA34
:200C200064AA6AAA68AAAAAA60AAAAAA72AAAAAAA8AAAAAAA8AAAAAAAAAAAAAAFFA8AAAA6F
:200C4000AAAAAAAAAAA8AAAAAAAAAAAAAA54AA56AA54AA56AA54AA56AA54AA56AA52AA54AC
:200C6000AA52AA54AA52AA54AA52AA56AAA8AAAAAAAAAAAAAA5AAAAAAA56AA50AA52AAAA94
:200C8000AAAAAAAAAAA8AAAAAAAAAAAAAA4CAAAAAA52AAAAAA5AAA5AAA5AAA5AAA5AAAA85E
:200CA000AA5AAAA8AA5AAAA8AA5AAA5CAA56AAA8AA56AAA8AA56AAA8AA56AA5CAA5AAAA82C
:200CC000AA5AAAA8AA5AAAA8AA5AAA5CAA56AA64605C5A565250AA68646A686A6E72AAAA5C
:200CE000AA72AAAAAA72746EAA6EAAAAAA6EAAAAAA6EAAAAAA6E7274AA72AAAAAA5AAAAA7C
:200D0000AA5AAAAAAA60AA5CAA56AAAAAA56AA56AA565A5CAA5AAA52AA50AAAAAA48AA482F
:200D2000AA484642AA48AA48AA484642AA48AA3EAA3EAA52504CAA42AA52AAA8AA6AAAAADF
:200D4000AA5CAAAAAA74AAAAAA6AAAA8AA62AA68AA68AA6C6466AAAAAA66AAA8AA52AA52A3
:200D6000AA54AAAAAA5252525254AAA8AAA8AAAAAAAAAAAAAA44AA484C4EAAA8AA52AA5277
:200D8000AA52504CAA52AA52AA52504CAA6A6864AA6A6864AA5C5A56AA5C5A56AAA8AAAA59
:200DA000AAAAAAAAAA4AAA4AAA44AAA8AA4AAA44AA44AAA8AA525252AA52AA4E4A48AA442D
:200DC000AA44AAAAAA44AA44AA3EAAA8AA4444444444423EAA74AA6AAA6A6A666260AAAA11
:200DE000AA5CAAA8AA52AA52AA54AAAAAA5252525254AAA8AAA8AAAAAAAAAAAAAA44AA488B
:200E00004C4EAAA8AA5CAA5CAA5C5A56AA56AA56AA56AA4EAA6A6864AA6A6864AA5C5A56B6
:200E2000AA5C5A56AAA8AAAAAAAAAAAAAA72AAAAAA72AAAAAA72746EAA6EAAAAAA6EAAAAF8
:200E4000AA6EAAAAAA6E7274AA72AAAAAA5AAAAAAA5AAAAAAA60AA5CAA56AAAAAA56AA56A4
:200E6000AA565A5CAA5AAA52AA5CAA5AAA5CAA5CAA5C5A56AA5C5C5C5C66AAAAAA74AA6AEA
:200E8000AA6A6A666260AAAAAA60AA5EAA48AA48AA48AA42AA48AA4848484642AA625A5AC8
:200EA000AA5AAA54524EAA5CAA5CAAA8AA52AA52AA52504CAA52AA52AA52504CAA6A686432
:200EC000AA6A6864AA5C5A56AA5C5A56AAA8AAAAAAAAAAAAAA4AAA4AAA44AAA8AA3AAA3A88
:200EE000AA3EAAA8AA525252AA52AA4E4A48AA44AA44AA5AAA50AA5A5A50AA5A5A50AA5A58
:200F00005A50505AAA4CAA5A5A4CAA5A5A4CAA5A5A4C4C52AA50AA5A5A50AA5A5A50AA5A91
:200F20005A505052AA4CAA5A5A4CAA52AA50AAAAAA605E5A565AAAAAAAA8AAAAAAA8AAAA69
:200F4000AAAAAAAAAAFFA8AAAAAAAAAAAAAAA8AAAAAAAAAAAAAA46AA48AA46AA48AA46AAF0
:200F600048AA46AA48AA44AA46AA44AA46AA44AA46AA44AA48AA52AA50AA4CAAAAAAAAAA8F
:200F8000AAAAAAAAAAAAA8AAAAAA50AAAAAA52AAAAAA50AAAAAA4CAAAAAAA8AAAAAA42AAE7
:200FA000AAAA42AA42AA4CAA42AA4CAA42AA4CAA42AA42AAA8AA56AA5CAA56AA5CAA56AA15
:200FC0005CAA56AA5CAA4AAA44AA42AAA8AA42AAA8AA42AAA8AAA8AAAAAA4AAAAAAA42AA8F
:200FE000AAAAAAAAA8AA42AAAAAA42AAAAAA42AA3EAA3EAAAAAA3EAAAAAA3EAAAAAA3EAA07
:2010000044AA42AAAAAA42AA42AA42AA44AA48AA44423EAAAAAA64AAAAAA64AAAAAAA8AA26
:20102000AAAA42AA46AA60AA60AA605E5AAA60AA60AA605E5AAA60AA56AA56AA52504CAA32
:201040005AAA5CAAA8AA5CAAAAAA5CAAAAAA6AAAAAAA5CAAA8AA4AAA54AA54AAA8AA5CAA78
:20106000AAAA5CAAA8AA3AAA3AAA3CAAAAAA3AAA3AAA3CAA3AAA46AA56AA56AA46AAA8AAFE
:20108000AAAA4EAA40AA3AAA3AAA3A424CAA3AAA3AAA3A424CAA52504CAA52504CAA4442F0
:2010A0003EAAA8AAAAAA56AA50AA44AA3EAA3AAA3AAA3CAAA8AA3AAA3AAA3CAAA8AA44444A
:2010C00044AA44AA444452AA5AAA5CAAAAAA44AA5CAA56AAA8AA44AA5CAA56AAA8AA52AACA
:2010E000AAAA54AAAAAA52AAAAAA44AAA8AA3AAA3AAA3CAAAAAA3AAA3AAA3CAA3AAA46AA36
:2011000056AA56AA46AAA8AAAAAA4EAA44AA44AA44AA44423EAA48AA48AA48423EAA525011
:201120004CAA52504CAA44423EAAA8AAAAAAA8AAAAAAAAAAAAAA42AAAAAA42AAAAAA42AA53
:201140003EAA3EAAAAAA3EAAAAAA3EAAAAAA3EAA44AA42AAAAAA42AA42AA42AA44AA48AA39
:2011600044423EAAAAAA64AAAAAA64AAAAAAA8AAAAAA44AA42AA44AA5CAA56AAA8AA44AA35
:2011800044AA4EAAAAAA52AAAAAA54AAAAAA52AAAAAA48AA46AA60AA60AA60AA5AAA60AA15
:2011A0006060605E5AAA4AAA54AA54AAA8AA4EAA5CAA5CAAA8AA3AAA3AAA3A424CAA3AAAF7
:2011C0003AAA3A424CAA52504CAA52504CAA44423EAAA8AAAAAA56AA4CAA44AA3EAA3AAAC5
:2011E0003AAA3CAAA8AA3AAA3AAA3CAAA8AA444444AA44AA444452AA5AAA5CAA5AAA5A5A29
:201200005A5A5A5A5A5A5A5A5A5A5AAAA8AA5A5A5A5A5A5A5A5A5A5A5A5A5AAAA8AA5858B6
:201220005858585858585858585858AAA8AA5A5A5A5A5A5A5A5A5858585858AAA8AAA8AA14
:20124000AAAAAAAAAAAAA8AAAAAAAAAAAAAAFFA8AAAAAAAAAAAAAAA8AAAAAAAAAAAAAA5455
:20126000AAAAAA54AAAAAA54AAAAAA54AAAAAA52AAAAAA52AAAAAA52AAAAAA52AAAAAA50EA
:20128000AA56AA5AAAAAAAAAAAAAAAA8AAAAAAA8AAAAAA5EAAAAAAAAAAAAAAAAAAAAAA5A52
:2012A000AAAAAAA8AAAAAAA8AAAAAAAAAAAAAA5AAAAAAA5AAAAAAA5AAAAAAAAAAAA8AA5E30
:2012C000AAAAAA5EAAAAAA5EAAAAAAAAAAA8AA58AAAAAA50AAAAAA50AAAAAAAAAAA8AA52C8
:2012E000AAAAAA60AAAAAA68AAAAAAA8AAAAAA50AAAAAA50AAAAAAA8AAAAAA4CAAAAAA4CAE
:20130000AAAAAA4CAAAAAAA8AAAAAA50AAAAAA50AAA8AAA8AA52AA56AA52504CAAAAAA4CBF
:20132000AAAAAA64AAAAAA60AA5AAA5EAAAAAA5EAAAAAAA8AAAAAA5EAAAAAAA8AAAAAA5689
:20134000AA64AA64AA605E5AAA50AA52AAA8AA60AAAAAAA8AAAAAA52AAAAAAA8AAAAAAA81B
:20136000AAAAAAAAAAAAAA5CAAAAAA5CAAA8AA60AAAAAA62AAAAAA60AAAAAA62AAA8AA5447
:20138000AA64AA64AA54AAA8AAAAAA5CAA52AA60AA60AA605E5AAA60AA60AA605E5AAAA88D
:2013A000AAAAAAAAAAAAAA52504CAA52504CAAA8AAAAAAAAAAAAAA52AAAAAA58AAA8AA5213
:2013C000AAAAAA58AAA8AAA8AAAAAAAAAAAAAA56AA60AA52AAAAAA52AA52AA5AAAA8AA5273
:2013E000AA52AA5AAAA8AA60AAAAAA62AAAAAA60AAAAAA52AAA8AA60AAAAAA62AAAAAA6069
:20140000AAAAAA62AAA8AA54AA64AA64AA54AAA8AAAAAA5CAA52AA52AAAAAAA8AAAAAA5664
:20142000AAAAAAA8AAAAAAA8AAAAAAAAAAAAAA52504CAA52504CAAA8AAAAAAAAAAAAAA50EC
:20144000AAAAAA50AAAAAAA8AAAAAA4CAAAAAA4CAAAAAA4CAAAAAAA8AAAAAA50AAAAAA5078
:20146000AAA8AAAAAA52AA56AA52504CAAAAAA4CAAAAAA64AAAAAAA8AAAAAA44AA42AA52B6
:20148000AA52AA5AAAA8AA52AA52AA5CAAAAAA60AAAAAA62AAAAAA60AAAAAAA8AAA8AA56E8
:2014A000AAAAAAA8AAAAAA68AAAAAAA8AAAAAAA8AAAAAAAAAAAAAA5CAA6AAA6AAAA8AA604E
:2014C000AA60AA605E5AAA60AA60AA605E5AAAA8AAAAAAAAAAAAAA52504CAA52504CAAA89A
:2014E000AAAAAAAAAAAAAA52AAAAAA58AAA8AA52AAAAAA58AAA8AAA8AAAAAAAAAAAAAA565A
:20150000AA60AA52AAAAAA5EAAAAAA5EAAAAAA5EAAAAAA5EAA60AA5AAAAAAA5AAAAAAA5A97
:20152000AAAAAA5AAA60AA5EAAAAAA5EAAAAAA5EAAAAAA5EAA60AA5AAAAAAA5AAA60AA5EB5
:20154000AAAAAA56AAAAAA50AAAAAAA8AAAAAAA8AAAAAAAAAAAAAAFF34093D0C460F4F12BC
:020000040001F9
:200000000000000000000000000000000000000000000000000000000000000000000000E0
:200020000000000000000000000000000000000000000000000000000000000000000000C0
:200040000000000000000000000000000000000000000000000000000000000000000000A0
:20006000000000000000000000000000000000000000000000000000000000000000000080
:20008000000000000000000000000000000000000000000000000000000000000000000060
:2000A000000000000000000000000000000000000000000000000000000000000000000040
:2000C000000000000000000000000000000000000000000000000000000000000000000020
:2000E000000000000000000000000000000000000000000000000000000000000000000000
:200100000000000000000000000000000000000000000000000000000000000000000000DF
:200120000000000000000000000000000000000000000000000000000000000000000000BF
:2001400000000000000000000000000000000000000000000000000000000000000000009F
:2001600000000000000000000000000000000000000000000000000000000000000000007F
:2001800000000000000000000000000000000000000000000000000000000000000000005F
:2001A00000000000000000000000000000000000000000000000000000000000000000003F
:2001C0000000010101010101010101010101010100011B1B1B1B1B1B1B1B1B1B1B1B1B1B96
:2001E00000011B1B1B1B1B1B1B1B1B1B1B1B1B1B00011B1B1B1B1B1B1B1B1B1B1B1B1B1B09
:200200000000000000000000000000000000000000000000000000000000000000000000DE
:200220000000000000000000000000000000000000000000000000000000000000000000BE
:2002400000000000000000000000000000000000000000000000000000000000000000009E
:2002600000000000000000000000000000000000000000000000000000000000000000007E
:2002800000000000000000000000000000000000000000000000000000000000000000005E
:2002A00000000000000000000000000000000000000000000000000000000000000000003E
:2002C00001010101010101010E010101010101011B1B1B1B1B1B1B1B011B1B1B1B1B1B1B6B
:2002E0001B1B1B1B1B1B1B1B1B1B1B1B1B1B1B1B1B1B1B1B1B1B1B1B1B1B1B1B1B1B1B1B9E
:200300000000000000000000000000000000000000000000000000000000000000000000DD
:200320000000000000000000000000000000000000000000000000000000000000000000BD
:2003400000000000000000000000000000000000000000000000000000000000000000009D
:2003600000000000000000000000000000000000000000000000000000000000000000007D
:2003800000000000000000000000000000000000000000000000000000000000000000005D
:2003A00000000000000000000000000000000000000000000000000000000000000000003D
:2003C00001010101010101010E000000000000001B1B1B1B1B1B1B1B0101010E000000001E
:2003E0001B1B1B1B1B1B1B1B1B1B1B01010E00001B1B1B1B1B1B1B1B1B1B1B1B1B010E0056
:200400000000000000000000000000000000000000000000000000000000000000000000DC
:200420000000000000000000000000000000000000000000000000000000000000000000BC
:2004400000000000000000000000000000000000000000000000000000000000000000009C
:2004600000000000000000000000000000000000000000000000000000000000000000007C
:2004800000000000000000000000000000000000000000000000000000000000000000005C
:2004A00000000000000000000000000000000000000000000000000000000000000000003C
:2004C00000000101010101010101010101010E0000011B1B1B1B1B1B1B1B1B1B1B1B010EAE
:2004E000011B1B1B1B1B1B1B1B1B1B1B1B1B010E011B1B1B1B1B1B1B1B1B1B1B1B1B010E1E
:200500000000000000000000000000000000000000000000000000000000000000000000DB
:200520000000000000000000000000000000000000000000000000000000000000000000BB
:2005400000000000000000000000000000000000000000000000000000000000000000009B
:2005600000000000000000000000000000000000000000000000000000000000000000007B
:2005800000000000000000000000000000000000000000000000000000000000000000005B
:2005A00000000000000000000000000000000000000000000000000000000000000000003B
:2005C00000000000000000000000010101010101000000000000000101011B1B1B1B1B1B70
:2005E000000000000001011B1B1B1B1B1B1B1B1B00000001011B1B1B1B1B1B1B1B1B1B1BDB
:200600000000000000000000000000000000000000000000000000000000000000000000DA
:200620000000000000000000000000000000000000000000000000000000000000000000BA
:2006400000000000000000000000000000000000000000000000000000000000000000009A
:2006600000000000000000000000000000000000000000000000000000000000000000007A
:2006800000000000000000000000000000000000000000000000000000000000000000005A
:2006A00000000000000000000000000000000000000000000000000000000000000000003A
:2006C0000101010E0001010101010101010101011B1B1B01011B1B1B1B1B1B1B1B1B1B1B82
:2006E0001B1B1B011B1B1B1B1B1B1B1B1B1B1B1B1B1B1B011B1B1B1B1B1B1B1B1B1B1B1BCE
:200700000000000000000000000000000000000000000000000000000000000000000000D9
:200720000000000000000000000000000000000000000000000000000000000000000000B9
:20074000000000000000000000000000000000000000000000000000000000000000000099
:20076000000000000000000000000000000000000000000000000000000000000000000079
:20078000000000000000000000000000000000000000000000000000000000000000000059
:2007A000000000000000000000000000000000000000000000000000000000000000000039
:2007C000010E0000010101010E000000000000001B010E011B1B1B1B01010101010E00004E
:2007E0001B010E011B1B1B1B1B1B1B1B1B01010E1B01011B1B1B1B1B1B1B1B1B1B1B1B0169
:200800000000000000000000000000000000000000000000000000000000000000000000D8
:200820000000000000000000000000000000000000000000000000000000000000000000B8
:20084000000000000000000000000000000000000000000000000000000000000000000098
:20086000000000000000000000000000000000000000000000000000000000000000000078
:20088000000000000000000000000000000000000000000000000000000000000000000058
:2008A000000000000000000000000000000000000000000000000000000000000000000038
:2008C00000000000000000000000000000010101000000000000000000000001011B1B1BC2
:2008E00000000000000000000000011B1B1B1B1B0E0000000000000000011B1B1B1B1B1BBF
:200900000000000000000000000000000000000000000000000000000000000000000000D7
:200920000000000000000000000000000000000000000000000000000000000000000000B7
:20094000000000000000000000000000000000000000000000000000000000000000000097
:20096000000000000000000000000000000000000000000000000000000000000000000077
:20098000000000000000000000000000000000000000000000000000000000000000000057
:2009A000000000000000000000000000000000000001010E00000000000000000000000027
:2009C000011B1B010101010E00000000000000011B1B1B1B1B1B1B01010E00000000011BE4
:2009E0001B1B1B1B1B1B1B1B1B010E000000011B1B1B1B1B1B1B1B1B1B1B010E0000011BA0
:200A00000000000000000000000000000000000000000000000000000000000000000000D6
:200A20000000000000000000000000000000000000000000000000000000000000000000B6
:200A4000000000000000000000000000000000000000000000000000000000000000000096
:200A6000000000000000000000000000000000000000000000000000000000000000000076
:200A8000000000000000000000000000000000000000000000000000000000000000000056
:200AA000000000000000000000000000000000000000000000000000000000000000000036
:200AC00001010101010101010101010101010E001B1B1B1B1B1B1B1B1B1B1B1B1B1B01017E
:200AE0001B1B1B1B1B1B1B1B1B1B1B1B1B1B1B1B1B1B1B1B1B1B1B1B1B1B1B1B1B1B1B1B96
:200B00000000000000000000000000000000000000000000000000000000000000000000D5
:200B20000000000000000000000000000000000000000000000000000000000000000000B5
:200B4000000000000000000000000000000000000000000000000000000000000000000095
:200B6000000000000000000000000000000000000000000000000000000000000000000075
:200B8000000000000000000000000000000000000000000000000000000000000000000055
:200BA000000000000000000000000000000000000000000000000000000000000000000035
:200BC00000000000000000000000000000000101010E0000000000000000000000011B1BCD
:200BE0001B01010E000000000000000000011B1B1B1B1B010E0000000000000000011B1BFC
:200C00000000000000000000000000000000000000000000000000000000000000000000D4
:200C20000000000000000000000000000000000000000000000000000000000000000000B4
:200C4000000000000000000000000000000000000000000000000000000000000000000094
:200C6000000000000000000000000000000000000000000000000000000000000000000074
:200C8000000000000000000000000000000000000000000000000000000000000000000054
:200CA000000000000000000000000000000000000000000000000000000000000000000034
:200CC000010101010E00000000000000000001011B1B1B1B010101010E00000000011B1B4B
:200CE0001B1B1B1B1B1B1B1B01010E0000011B1B1B1B1B1B1B1B1B1B1B1B010E00011B1B81
:200D00000000000000000000000000000000000000000000000000000000000000000000D3
:200D20000000000000000000000000000000000000000000000000000000000000000000B3
:200D4000000000000000000000000000000000000000000000000000000000000000000093
:200D6000000000000000000000000000000000000000000000000000000000000000000073
:200D8000000000000000000000000000000000000000000000000000000000000000000053
:200DA000000000000000000000000000000000000000000000000000000000000000000033
:200DC000010E00000000000101010101010101011B010E000000011B1B1B1B1B1B1B1B1BDD
:200DE0001B010E0000011B1B1B1B1B1B1B1B1B1B1B010E0000011B1B1B1B1B1B1B1B1B1B81
:200E00000000000000000000000000000000000000000000000000000000000000000000D2
:200E20000000000000000000000000000000000000000000000000000000000000000000B2
:200E4000000000000000000000000000000000000000000000000000000000000000000092
:200E6000000000000000000000000000000000000000000000000000000000000000000072
:200E8000000000000000000000000000000000000000000000000000000000000000000052
:200EA000000000000000000000000000000000000000000000000000000000000000000032
:200EC00001010E000000000001010101010101011B1B010E000000011B1B1B1B1B1B1B1BDC
:200EE0001B1B010E0000011B1B1B1B1B1B1B1B1B1B1B010E0000011B1B1B1B1B1B1B1B1B80
:200F00000000000000000000000000000000000000000000000000000000000000000000D1
:200F20000000000000000000000000000000000000000000000000000000000000000000B1
:200F4000000000000000000000000000000000000000000000000000000000000000000091
:200F6000000000000000000000000000000000000000000000000000000000000000000071
:200F8000000000000000000000000000000000000000000000000000000000000000000051
:200FA000000000000000000000000000000000000000000000000000000000000000000031
:200FC00001010101010101010101010101010E001B1B1B1B1B1B1B1B1B1B1B1B1B1B010E6C
:200FE0001B1B1B1B1B1B1B1B1B1B1B1B1B1B010E1B1B1B1B1B1B1B1B1B1B1B1B1B1B010EDF
:2010000000011B1B1B1B1B1B1B1B1B1B1B1B1B1B00011B1B1B1B1B1B1B1B1B1B1B1B1B1BDA
:2010200000011B1B1B1B1B1B1B1B1B1B1B1B1B1B00011B1B1B1B1B1B1B1B1B1B1B1B1B1BBA
:2010400000011B1B1B1B1B1B1B1B1B1B1B1B1B1B00011B1B1B1B1B1B1B1B1B1B1B1B1B1B9A
:2010600000011B1B1B1B1B1B1B1B1B1B1B1B1B1B00011B1B1B1B1B1B1B1B1B1B1B1B1B1B7A
:2010800000011B1B1B1B1B1B1B1B1B1B1B1B1B1B00000101010101011B1B1B1B1B1B1B1BF7
:2010A0000000000E0E0E0E011B1B1B1B1B1B1B1B00000000000000011B1B1B1B1B1B1B1B46
:2010C00000000000000000011B1B1B1B1B1B1B1B00000000000000011B1B1B1B1B1B1B1B5E
:2010E00000000000000000011B1B1B1B1B1B1B1B00000000000000011B1B1B1B1B1B1B1B3E
:201100001B1B1B1B1B1B1B1B011B1B1B1B1B1B1B1B1B1B1B1B1B1B1B011B1B1B1B1B1B1BA3
:201120001B1B1B1B1B1B1B1B011B1B1B1B1B1B1B1B1B1B1B1B1B1B1B011B1B1B1B1B1B1B83
:201140001B1B1B1B1B1B1B1B011B1B1B1B1B1B1B1B1B1B1B1B1B1B1B011B1B1B1B1B1B1B63
:201160001B1B1B1B1B1B1B1B011B1B1B1B1B1B1B1B1B1B1B1B1B1B1B011B1B1B1B1B1B1B43
:201180001B1B1B1B1B1B1B1B011B1B1B1B1B1B1B1B1B1B0101010101011B1B1B1B1B1B1BA5
:2011A0001B1B1B010E0E0E0E011B1B1B1B1B1B1B1B1B1B010E000000011B1B1B1B1B1B1BC9
:2011C0001B1B1B010E000000011B1B1B1B1B1B1B1B1B010E0E000000011B1B1B1B1B1B1BE0
:2011E0001B1B010E00000000011B1B1B1B1B1B1B1B1B010E0000000000011B1B1B1B1B1B04
:201200001B1B1B1B1B1B1B1B1B1B1B1B1B1B010E1B1B1B1B1B1B1B1B1B1B1B1B1B1B1B01AF
:201220001B1B1B1B1B1B1B1B1B1B1B1B1B1B1B1B1B1B1B1B1B1B1B1B1B1B1B1B1B1B1B1B4E
:201240001B1B1B1B1B1B1B1B1B1B1B1B1B1B1B1B1B1B1B1B1B1B1B1B1B1B1B1B1B1B1B1B2E
:201260001B1B1B1B1B1B1B1B1B1B1B1B1B1B1B1B1B1B1B1B1B1B1B1B1B1B1B1B1B1B1B1B0E
:201280001B1B1B1B1B1B1B1B1B1B1B1B1B1B1B1B1B1B1B1B1B011B1B1B1B1B1B1B1B1B1B08
:2012A0001B1B1B1B1B0101011B1B1B1B1B1B1B1B1B1B1B1B1B010E011B1B1B1B1B1B1B1B5D
:2012C0001B1B1B1B1B010E011B1B1B1B1B1B1B1B1B1B1B1B1B01011B1B1B1B1B1B1B1B1B23
:2012E0001B1B1B1B1B1B1B1B1B1B1B1B1B1B1B011B1B1B1B1B1B1B1B1B1B1B1B1B1B010ECF
:20130000011B1B1B1B1B1B1B1B1B1B1B1B1B010E011B1B1B1B1B1B1B1B1B1B1B1B1B010EEF
:20132000011B1B1B1B1B1B1B1B1B1B1B1B1B010E01011B1B1B1B1B1B1B1B1B1B1B1B010EE9
:201340001B011B1B1B1B1B1B1B1B1B1B1B1B01011B011B1B1B1B1B1B1B1B1B1B1B1B0101C9
:201360001B011B1B1B1B1B1B1B1B1B1B1B1B01011B011B1B1B1B1B1B1B1B1B1B1B1B011B8F
:201380001B011B1B1B1B1B1B1B1B1B1B1B1B011B1B011B1B1B1B1B1B1B1B1B1B1B1B011B55
:2013A0001B011B1B1B1B1B1B1B1B1B1B1B1B011B1B011B1B1B1B1B1B1B1B1B1B1B1B011B35
:2013C00001011B1B1B1B1B1B1B1B1B1B1B1B011B01011B1B1B1B1B1B1B1B1B1B1B1B011B49
:2013E0000E011B1B1B1B1B1B1B1B1B1B1B1B011B0E011B1B1B1B1B1B1B1B1B1B1B1B011B0F
:201400000000011B1B1B1B1B1B1B1B1B1B1B1B1B00011B1B1B1B1B1B1B1B1B1B1B1B1B1BF1
:2014200000011B1B1B1B1B1B1B1B1B1B1B1B1B1B011B1B1B1B1B1B1B1B1B1B1B1B1B1B1B9B
:201440001B1B1B1B1B1B1B1B1B1B1B1B1B1B1B1B1B1B1B1B1B1B1B1B1B1B1B1B1B1B1B1B2C
:201460001B1B1B1B1B1B1B1B1B1B1B1B1B1B1B1B1B1B1B1B1B1B1B1B1B1B1B1B1B1B1B1B0C
:201480001B1B1B1B1B1B1B1B1B1B1B1B1B1B1B1B1B1B1B1B1B1B1B1B1B1B1B1B1B1B010120
:2014A0001B1B1B1B1B1B1B1B1B1B1B1B1B010E0E1B1B1B1B1B1B1B1B1B1B1B1B010E0E004F
:2014C0001B1B1B1B1B1B1B1B1B1B1B010E0E00001B1B1B1B1B1B1B1B1B1B1B010E0000008E
:2014E0001B1B1B1B1B1B1B1B1B1B1B010E0000001B1B1B1B1B1B1B1B1B1B1B010E0000007C
:201500001B1B1B01011B1B1B1B1B1B1B1B1B1B1B1B1B1B01011B1B1B1B1B1B1B1B1B1B1BD3
:201520001B1B1B01011B1B1B1B1B1B1B1B1B1B1B1B1B1B01011B1B1B1B1B1B1B1B1B1B1BB3
:201540001B1B1B1B011B1B1B1B1B1B1B1B1B1B1B1B1B1B1B011B1B1B1B1B1B1B1B1B1B1B5F
:201560001B1B1B1B011B1B1B1B1B1B1B1B1B1B1B1B1B1B1B011B1B1B1B1B1B1B1B1B1B1B3F
:201580001B1B1B1B011B1B1B1B1B1B1B1B1B1B1B01010101011B1B1B1B1B1B1B1B1B1B1B87
:2015A0000E0E0E0E011B1B1B1B1B1B1B1B1B1B1B00000000011B1B1B1B1B1B1B1B1B1B1B9F
:2015C00000000000011B1B1B1B1B1B1B1B1B1B1B00000000011B1B1B1B1B1B1B1B1B1B1BB7
:2015E00000000000011B1B1B1B1B1B1B1B1B1B1B00000000011B1B1B1B1B1B1B1B1B1B1B97
:201600001B01011B1B1B1B1B1B1B1B1B1B1B010E1B01011B1B1B1B1B1B1B1B1B1B1B010E20
:201620001B011B1B1B1B1B1B1B1B1B1B1B010E0E1B011B1B1B1B1B1B1B1B1B1B1B010E00F4
:201640001B011B1B1B1B1B1B1B1B1B1B010E0E001B1B1B1B1B1B1B1B1B1B1B1B010E0000F0
:201660001B1B1B1B1B1B1B1B1B1B1B010E0E00001B1B1B1B1B1B1B1B1B1B1B010E000000EC
:201680001B1B1B1B1B1B1B1B1B1B010E0E0000001B1B1B1B1B1B1B1B1B1B010E0000000002
:2016A0001B1B1B1B1B1B1B1B1B010E0E000000001B1B1B1B1B1B1B1B1B010E000000000018
:2016C0001B1B1B1B1B1B1B1B010E0E00000000001B1B1B1B1B1B1B010E0E0000000000003B
:2016E0001B1B1B1B1B1B1B010E000000000000001B1B1B1B1B1B1B010E0000000000000052
:201700000E00000000000000011B1B1B1B1B1B1B00000000000000011B1B1B1B1B1B1B1B24
:2017200000000000000000011B1B1B1B1B1B1B1B000000000000011B1B1B1B1B1B1B1B1BDC
:20174000000000000000011B1B1B1B1B1B1B1B1B0000000000011B1B1B1B1B1B1B1B1B1B86
:201760000000000000011B1B1B1B1B1B1B1B1B1B0000000000011B1B1B1B1B1B1B1B1B1B4B
:201780000000000000011B1B1B1B1B1B1B1B1B1B0000000000011B1B1B1B1B1B1B1B1B1B2B
:2017A0000000000000011B1B1B1B1B1B1B1B1B1B0000000000011B1B1B1B1B1B1B1B1B1B0B
:2017C0000000000000011B1B1B1B1B1B1B1B1B010000000000011B1B1B1B1B1B1B1B1B011F
:2017E0000000000000011B1B1B1B1B1B1B1B1B010000000000011B1B1B1B1B1B1B1B1B1BE5
:201800001B1B1B1B1B1B1B1B1B1B1B010E00011B1B1B1B1B1B1B1B1B1B1B1B1B010E011B05
:201820001B1B1B1B1B1B1B1B1B1B1B1B1B01011B1B1B1B1B1B1B1B1B1B1B1B1B1B01011BB0
:201840001B1B1B1B1B1B1B1B1B1B1B1B1B01011B1B1B1B1B1B1B1B1B1B1B1B1B1B1B011B76
:201860001B1B1B1B1B1B1B1B1B1B1B1B1B1B011B1B1B1B1B1B1B1B1B1B1B1B1B1B1B011B3C
:201880001B1B1B1B1B1B1B1B1B1B1B1B1B1B011B1B1B1B1B1B1B1B1B1B1B1B1B1B1B011B1C
:2018A000010101011B1B1B1B1B1B1B1B1B1B011B010E0E0E011B1B1B1B1B1B1B1B1B011BBF
:2018C0000E0E0000011B1B1B1B1B1B1B1B1B011B0E000000011B1B1B1B1B1B1B1B1B0101D8
:2018E0000E000000011B1B1B1B1B1B1B1B1B0101010E0000011B1B1B1B1B1B1B1B1B0101DF
:201900001B1B1B1B1B1B1B1B1B1B1B1B1B1B1B1B1B1B1B1B1B1B1B1B1B1B1B1B1B1B1B1B67
:201920001B1B1B1B1B1B1B1B1B1B1B1B1B1B1B1B1B1B1B1B1B1B1B1B1B1B1B1B1B1B1B1B47
:201940001B1B1B1B1B1B1B1B1B1B1B1B1B1B1B1B1B1B1B1B1B1B1B1B1B1B1B1B1B1B1B1B27
:201960001B1B1B1B1B1B1B1B1B1B1B1B1B1B1B1B1B1B1B1B1B1B1B1B1B1B1B1B1B1B1B1B07
:201980001B1B1B1B1B1B1B1B1B1B1B1B1B1B1B1B1B1B1B1B1B1B1B1B1B1B1B011B1B1B1B01
:2019A0001B1B1B1B1B1B1B1B1B1B1B0101011B1B1B1B1B1B1B1B1B1B1B1B1B010E011B1B56
:2019C0001B1B1B1B1B1B1B1B1B1B1B010E011B1B1B1B1B1B1B1B1B1B1B1B1B01011B1B1B1C
:2019E0001B1B1B1B1B1B1B1B1B1B1B1B1B1B1B1B1B1B1B1B1B1B1B1B1B1B1B1B1B1B1B1B87
:201A00001B1B1B1B010E00000000000000011B1B1B1B1B1B1B010E000000000000011B1B47
:201A20001B1B1B1B1B1B010E0000000000011B1B1B1B1B1B1B1B010E0000000000011B1BD6
:201A40001B1B1B1B1B1B1B010E00000000011B1B1B1B1B1B1B1B1B010E00000000011B1B80
:201A60001B1B1B1B1B1B1B010E00000000011B1B1B1B1B1B1B1B1B010E0000000000011B7B
:201A80001B1B1B1B1B1B1B010E0000000000011B1B1B1B1B1B1B1B010E0000000000000191
:201AA0001B1B1B1B1B1B1B010E000000000000001B1B1B1B1B1B1B010E000000000000008E
:201AC0001B1B1B1B1B1B010E0E000000000000001B1B1B1B1B1B010E000000000000000096
:201AE0001B1B1B1B1B010E0E00000000000000001B1B1B1B010E0E000000000000000000B9
:201B00001B1B1B1B1B1B1B1B1B1B1B1B1B1B1B1B1B1B1B1B1B1B1B1B1B1B1B1B1B1B1B1B65
:201B20001B1B1B1B1B1B1B1B1B1B1B1B1B1B1B1B1B1B1B1B1B1B1B1B1B1B1B1B1B1B1B1B45
:201B40001B1B1B1B1B1B1B1B1B1B1B1B1B1B1B1B1B1B1B1B1B1B1B1B1B1B1B1B1B1B1B1B25
:201B60001B1B1B1B1B1B1B1B1B1B1B1B1B1B1B1B1B1B1B1B1B1B1B1B1B1B1B1B1B1B1B1B05
:201B80001B1B1B1B1B1B1B1B1B1B1B1B1B1B1B1B010101011B1B1B1B1B1B1B1B1B1B1B0167
:201BA0000E0E0E011B1B1B1B1B1B1B1B1B1B1B01000000011B1B1B1B1B1B1B1B1B1B1B01A5
:201BC000000000011B1B1B1B1B1B1B1B1B1B1B01000000011B1B1B1B1B1B1B1B1B1B1B01AF
:201BE000000000011B1B1B1B1B1B1B1B1B1B1B01000000011B1B1B1B1B1B1B1B1B1B1B018F
:201C00001B1B1B1B1B1B1B1B1B1B1B1B1B1B1B1B1B1B1B1B1B1B1B1B1B1B1B1B1B1B1B1B64
:201C20001B1B1B1B1B1B1B1B1B1B1B1B1B1B1B1B1B1B1B1B1B1B1B1B1B1B1B1B1B1B1B1B44
:201C40001B1B1B1B1B1B1B1B1B1B1B1B1B1B1B1B1B1B1B1B1B1B1B1B1B1B1B1B1B1B1B1B24
:201C60001B1B1B1B1B1B1B1B1B1B1B1B1B1B1B1B1B1B1B1B1B011B1B1B1B1B1B1B1B1B1B1E
:201C80001B1B1B1B01011B1B1B1B1B1B1B1B1B1B010101010E011B1B1B1B1B1B1B1B1B1BA7
:201CA0000E0E0E0E0E011B1B1B1B1B1B1B1B1B1B0E00000000011B1B1B1B1B1B1B1B1B1BB2
:201CC0000E00000000011B1B1B1B1B1B1B1B1B1B0E00000000011B1B1B1B1B1B1B1B1B1BCA
:201CE0000E00000000011B1B1B1B1B1B1B1B1B1B0E00000000011B1B1B1B1B1B1B1B1B1BAA
:201D00001B1B1B1B1B1B1B1B1B1B1B010E011B1B1B1B1B1B1B1B1B1B1B1B1B1B01011B1BD8
:201D20001B1B1B1B1B1B1B1B1B1B1B1B01011B1B1B1B1B1B1B1B1B1B1B1B1B1B1B011B1B91
:201D40001B1B1B1B1B1B1B1B1B1B1B1B1B011B1B1B1B1B1B1B1B1B1B1B1B1B1B1B011B1B57
:201D60001B1B1B1B1B1B1B1B1B1B1B1B1B011B1B1B1B1B1B1B1B1B1B1B1B1B1B1B1B1B1B1D
:201D80001B1B1B1B1B1B1B1B1B1B1B1B1B1B1B1B1B1B1B1B1B1B1B1B1B1B1B1B1B011B1BFD
:201DA0001B1B01011B1B1B1B1B1B1B1B1B011B1B1B1B010E011B1B1B1B1B1B1B1B011B1B6C
:201DC0001B1B01011B1B1B1B1B1B1B1B1B011B1B1B1B01011B1B1B1B1B1B1B1B01011B1B59
:201DE0001B1B1B1B1B1B1B1B1B1B1B010E011B1B1B1B1B1B1B1B1B1B1B1B010E0E00011B2D
:201E00001B1B1B1B1B1B1B1B1B1B1B1B1B1B1B1B1B1B1B1B1B1B1B1B1B1B1B1B1B1B1B1B62
:201E20001B1B1B1B1B1B1B1B1B1B1B1B1B1B1B1B1B1B1B1B1B1B1B1B1B1B1B1B1B1B1B1B42
:201E40001B1B1B1B1B1B1B1B1B1B1B1B1B1B1B1B1B1B1B1B1B1B1B1B1B1B1B1B1B1B1B1B22
:201E60001B1B1B1B1B1B1B1B1B1B1B1B1B1B1B1B1B1B1B1B1B1B1B1B1B1B1B1B1B1B1B1B02
:201E80001B1B1B1B1B1B1B1B1B1B1B1B1B1B1B1B1B1B1B1B1B1B1B1B1B1B0101010101017E
:201EA0001B1B1B1B1B1B1B1B1B1B0101010101011B1B1B1B1B1B1B1B1B1B1B1B1B1B1B1B5E
:201EC0001B1B1B1B1B1B1B1B1B1B1B1B1B1B1B1B1B1B1B1B1B1B1B1B1B1B1B1B1B1B1B1BA2
:201EE0001B1B1B1B1B1B1B1B1B1B1B1B1B1B1B1B1B1B1B1B1B1B1B1B1B1B1B1B1B1B1B1B82
:201F00001B010E0000011B1B1B1B1B1B1B1B1B1B1B010E0000011B1B1B1B1B1B1B1B1B1B4F
:201F20001B010E0000011B1B1B1B1B1B1B1B1B1B1B010E00011B1B1B1B1B1B1B1B1B1B1B14
:201F40001B010E00011B1B1B1B1B1B1B1B1B1B1B1B010E00011B1B1B1B1B1B1B1B1B1B1BD9
:201F60001B010E00011B1B1B1B1B1B1B1B1B1B1B010E0E00011B1B1B1B1B1B1B1B1B1B1BC6
:201F8000010E0000011B1B1B1B1B1B1B1B1B1B1B0E0E00011B1B1B1B1B1B1B1B1B1B1B1BA7
:201FA0000E0000011B1B1B1B1B1B1B1B1B1B1B1B010E00011B1B1B1B1B1B1B1B1B1B1B1B7A
:201FC000010E00011B1B1B1B1B1B1B1B1B1B1B1B010E011B1B1B1B1B1B1B1B1B1B1B1B1B3E
:201FE000010E011B1B1B1B1B1B1B1B1B1B1B1B1B010E011B1B1B1B1B1B1B011B1B1B1B1B1D
:202000001B1B1B010E0000011B1B1B1B1B1B1B1B1B1B1B010E0000011B1B1B1B1B1B1B1B4E
:202020001B1B1B010E0000011B1B1B1B1B1B1B1B1B1B1B010E0000011B1B1B1B1B1B1B1B2E
:202040001B1B1B010E0000011B1B1B1B1B1B1B1B1B1B1B1B010E00011B1B1B1B1B1B1B1BF3
:202060001B1B1B1B010E00011B1B1B1B1B1B1B1B1B1B1B1B010E00011B1B1B1B1B1B1B1BB8
:202080001B1B1B1B010E00011B1B1B1B1B1B1B1B1B1B1B1B1B010E0001010101011B1B1B00
:2020A0001B1B1B1B1B010E00000E0E0E011B1B1B1B1B1B1B1B010E0000000000011B1B1B26
:2020C0001B1B1B1B1B010E0000000000011B1B1B1B1B1B1B1B010E000000000000011B1B4B
:2020E0001B1B1B1B1B1B010E0000000000011B1B1B1B1B1B1B1B010E0000000000011B1B10
:202100001B1B1B1B1B1B1B1B1B1B1B1B1B1B010E1B1B1B1B1B1B1B1B1B1B1B1B1B1B010EAD
:202120001B1B1B1B1B1B1B1B1B1B1B1B1B1B010E1B1B1B1B1B1B1B1B1B1B1B1B1B1B010E8D
:202140001B1B1B1B1B1B1B1B1B1B1B1B1B1B010E1B1B1B1B1B1B1B1B1B1B1B1B1B1B010E6D
:202160001B1B1B1B1B1B1B1B1B1B1B1B1B1B010E1B1B1B1B1B1B1B1B1B1B1B1B1B1B010E4D
:202180001B1B1B1B1B1B1B1B1B1B1B1B1B1B010E1B1B1B1B1B1B1B1B0101010101010E0EBC
:2021A0001B1B1B1B1B1B1B1B010E0E0E0E0E0E001B1B1B1B1B1B1B1B010E0000000000000B
:2021C0001B1B1B1B1B1B1B1B010E0000000000001B1B1B1B1B1B1B1B010E00000000000031
:2021E0001B1B1B1B1B1B1B1B010E0000000000001B1B1B1B1B1B1B1B010E00000000000011
:2022000000000000000000011B1B1B1B1B1B1B1B00000000000000011B1B1B1B1B1B1B1B0C
:2022200000000000000000011B1B1B1B1B1B1B1B00000000000000011B1B1B1B1B1B1B1BEC
:2022400000000000000000011B1B1B1B1B1B1B1B00000000000000011B1B1B1B1B1B1B1BCC
:2022600000000000000000011B1B1B1B1B1B1B1B00000000000000011B1B1B1B1B1B1B1BAC
:2022800000000000000000011B1B1B1B1B1B1B1B000000000000000001010101010101015D
:2022A0000000000000000000000E0E0E0E0E0E0E00000000000000000000000000000000BC
:2022C0000000000000000000000000000000000000000000000000000000000000000000FE
:2022E0000000000000000000000000000000000000000000000000000000000000000000DE
:202300001B1B010E0000000000011B1B1B1B1B1B1B1B010E0000000000011B1B1B1B1B1BED
:202320001B1B010E0000000000011B1B1B1B1B1B1B1B010E0000000000011B1B1B1B1B1BCD
:202340001B1B010E0000000000011B1B1B1B1B1B1B1B010E0000000000011B1B1B1B1B1BAD
:202360001B1B010E0000000000011B1B1B1B1B1B1B1B010E0000000000011B1B1B1B1B1B8D
:202380001B1B010E0000000000011B1B1B1B1B1B01010E0E00000000000001010101010131
:2023A0000E0E0E00000000000000000E0E0E0E0E00000000000000000000000000000000AD
:2023C0000000000000000000000000000000000000000000000000000000000000000000FD
:2023E0000000000000000000000000000000000000000000000000000000000000000000DD
:202400001B1B1B1B1B1B1B1B1B1B1B1B1B010E0E1B1B1B1B1B1B1B1B1B1B1B1B010E0E00DF
:202420001B1B1B1B1B1B1B1B1B1B1B1B1B010E001B1B1B1B1B1B1B1B1B1B1B1B1B1B010EA5
:202440001B1B1B1B1B1B1B1B1B1B1B1B1B1B1B011B1B1B1B1B1B1B1B1B1B1B1B1B1B1B1B36
:202460001B1B1B1B1B011B1B1B1B1B1B1B1B1B1B1B1B1B1B1B011B1B1B1B1B1B1B1B1B1B30
:202480001B1B1B1B1B01011B1B1B1B1B1B1B1B0101010101010E0E011B1B1B1B0101010E3B
:2024A0000E0E0E0E0E0E00011B1B01010E0E0E0E000000000000000001010E0E0E0000002B
:2024C0000000000000000000000E0E000000000000000000000000000000000000000000E0
:2024E0000000000000000000000000000000000000000000000000000000000000000000DC
:2025000000011B1B1B1B1B1B1B1B1B1B1B1B010100011B1B1B1B1B1B1B1B1B1B1B1B01012D
:2025200000011B1B1B1B1B1B1B1B1B1B1B1B010100011B1B1B1B1B1B1B1B1B1B1B010E0E0D
:202540000E011B1B1B1B1B1B1B1B1B1B1B010E0001011B1B1B1B1B1B1B1B1B1B1B010E00FA
:202560001B011B1B1B1B1B1B1B1B1B1B1B010E001B011B1B1B1B1B1B1B1B1B1B1B010E00B3
:2025800001011B1B1B1B1B1B1B1B1B1B1B010E000E0E01010101010101010101010E0E00BE
:2025A0000000000E0E0E0E0E0E0E0E0E0E0E00000000000000000000000000000000000081
:2025C0000000000000000000000000000000000000000000000000000000000000000000FB
:2025E0000000000000000000000000000000000000000000000000000000000000000000DB
:202600001B1B1B1B1B1B1B1B1B1B1B010E0000001B1B1B1B1B1B1B1B1B1B1B1B010E00002F
:202620001B1B1B1B1B1B1B1B1B1B1B1B01010E00011B1B1B1B1B1B1B1B1B1B1B1B1B0101E4
:2026400000011B1B1B1B1B1B1B1B1B1B1B1B1B1B0000011B1B1B1B1B1B1B1B1B1B1B1B1B9F
:202660000000011B1B1B1B1B1B1B1B1B1B1B1B1B00000001011B1B1B1B1B1B1B1B1B1B1BCF
:20268000000000000E011B1B1B1B1B1B1B1B1B1B0000000000000101011B1B1B1B1B1B1B5D
:2026A000000000000000000E0E01010101010101000000000000000000000E0E0E0E0E0EA3
:2026C0000000000000000000000000000000000000000000000000000000000000000000FA
:2026E0000000000000000000000000000000000000000000000000000000000000000000DA
:2027000000000000011B1B1B1B1B1B1B1B1B1B1B00000000011B1B1B1B1B1B1B1B1B1B1B65
:2027200000000101011B1B1B1B1B1B1B1B1B1B1B01011B1B011B1B1B1B1B1B1B1B1B1B1B0B
:202740001B1B1B1B011B1B1B1B1B1B1B1B1B1B1B1B1B1B010E011B1B1B1B1B1B1B1B1B1B74
:202760001B1B1B010E011B1B1B1B1B1B1B1B1B1B1B1B1B010E011B1B1B1B1B1B1B1B1B1B7B
:202780001B1B1B010E011B1B1B1B1B1B1B1B1B1B1B1B010E0E00010101010101010101016D
:2027A00001010E0E0000000E0E0E0E0E0E0E0E0E0E0E0E0000000000000000000000000053
:2027C0000000000000000000000000000000000000000000000000000000000000000000F9
:2027E0000000000000000000000000000000000000000000000000000000000000000000D9
:202800001B1B1B1B1B1B1B1B010E0000000000001B1B1B1B1B1B1B1B1B010E0000000000CF
:202820001B1B1B1B1B1B1B1B1B010E00000000001B1B1B1B1B1B1B1B1B1B01010E00000078
:202840001B1B1B1B1B1B1B1B1B1B1B1B010E0000011B1B1B1B1B1B1B1B1B1B1B1B010E00D1
:2028600001011B1B1B1B1B1B1B1B1B1B1B010E0001011B1B1B1B1B1B1B1B1B1B1B010E00E4
:20288000010E011B1B1B1B1B1B1B0101010E0E000E0E00011B1B1B1B01010E0E0E0E000089
:2028A0000E0000011B1B01010E0E0E00000000000000000001010E0E0E000000000000007B
:2028C00000000000000E0E00000000000000000000000000000000000000000000000000DC
:2028E0000000000000000000000000000000000000000000000000000000000000000000D8
:202900000000000000011B1B1B1B1B1B1B1B1B1B000000000000011B1B1B1B1B1B1B1B1BB4
:20292000000000000000011B1B1B1B1B1B1B1B1B00000000000000011B1B1B1B1B1B1B1BCA
:2029400000000000000000011B1B1B1B1B1B1B1B0000000000000000011B1B1B1B1B1B1BE0
:20296000000000000000000000011B1B1B1B1B1B00000000000000000000011B1B1B1B1B2C
:202980000000000000000000000000011B1B1B1B00000000000000000000000001011B1B92
:2029A000000000000000000000000000000E01010000000000000000000000000000000EF9
:2029C0000000000000000000000000000000000000000000000000000000000000000000F7
:2029E0000000000000000000000000000000000000000000000000000000000000000000D7
:202A0000010E00011B1B1B1B1B1B1B1B1B1B0101010E00011B1B1B1B1B1B1B1B1B010E0183
:202A20001B01011B1B1B1B1B1B1B1B1B1B010E011B1B1B1B1B1B1B1B1B1B1B1B010E0E01F9
:202A40001B1B1B1B1B1B1B1B1B1B1B1B010E00011B1B1B1B1B1B1B1B1B1B1B010E0E0001DB
:202A60001B1B1B1B1B1B1B1B1B1B010E0E0000011B1B1B1B1B1B1B1B1B010E0E0000000119
:202A80001B1B1B1B1B1B1B1B010E0E00000000011B1B1B1B1B1B01010E0E00000000000080
:202AA0000101010101010E0E0E000000000000000E0E0E0E0E0E0E00000000000000000084
:202AC0000000000000000000000000000000000000000000000000000000000000000000F6
:202AE0000000000000000000000000000000000000000000000000000000000000000000D6
:202B00001B1B1B1B1B1B1B1B1B1B1B1B1B1B1B1B1B1B1B1B1B1B1B1B1B1B1B1B1B1B1B1B55
:202B20001B1B1B1B1B1B1B1B1B1B1B1B1B1B1B1B1B1B1B1B1B1B1B1B1B1B1B1B1B1B1B1B35
:202B40001B1B1B1B1B1B1B1B1B1B1B1B1B1B1B1B1B1B1B1B1B1B1B1B1B1B1B1B1B1B1B1B15
:202B60001B1B1B1B1B1B1B1B1B1B1B011B1B1B1B1B1B1B1B1B1B1B1B1B1B1B01011B1B1B43
:202B80001B1B1B1B1B1B1B1B1B1B1B01011B1B1B01010101010101010101010E0E011B1B5B
:202BA000000E0E0E0E0E0E0E0E0E0E0E0000011B000000000000000000000000000000015E
:202BC0000000000000000000000000000000000000000000000000000000000000000000F5
:202BE0000000000000000000000000000000000000000000000000000000000000000000D5
:202C00001B1B1B010E0E000000000000000000001B1B010E0E0000000000000000000000F3
:202C20001B1B1B010E00000000000000000000001B1B1B1B010E00000000000000000000B9
:202C40001B1B1B1B1B010E0000000000000000001B1B1B1B1B1B010E00000000000000002D
:202C60001B1B1B1B1B1B1B010E000000000000001B1B1B1B1B1B1B010E00000000000000BC
:202C80001B1B1B1B1B01010E0E000000000000001B1B1B01010E0E0E000000000000000012
:202CA0000101010E0E0E000000000000000000000E0E0E0E000000000000000000000000AF
:202CC0000E00000000000000000000000000000000000000000000000000000000000000E6
:202CE0000000000000000000000000000000000000000000000000000000000000000000D4
:202D0000000000011B1B1B1B1B1B1B1B1B1B1B01000000011B1B1B1B1B1B1B1B1B1B1B015D
:202D2000000000011B1B1B1B1B1B1B1B1B1B1B0100000000011B1B1B1B1B1B1B1B1B1B0158
:202D400000000000011B1B1B1B1B1B1B1B1B010E00000000011B1B1B1B1B1B1B1B1B010E6D
:202D600000000000011B1B1B1B1B1B1B1B1B010E00000000011B1B1B1B1B1B1B1B1B010E4D
:202D800000000000011B1B1B1B1B1B1B1B1B010E00000000000101010101010101010E0E0B
:202DA0000000000000000E0E0E0E0E0E0E0E0E000000000000000000000000000000000095
:202DC0000000000000000000000000000000000000000000000000000000000000000000F3
:202DE0000000000000000000000000000000000000000000000000000000000000000000D3
:202E00000E00000000011B1B1B1B1B1B1B1B1B1B0E00000000011B1B1B1B1B1B1B1B1B1B78
:202E20000E00000000011B1B1B1B1B1B1B1B1B1B0E00000000011B1B1B1B1B1B1B1B1B1B58
:202E40000E00000000011B1B1B1B1B1B1B1B1B1B0000000000011B1B1B1B1B1B1B1B1B1B46
:202E60000000000000011B1B1B1B1B1B1B1B1B1B0000000000011B1B1B1B1B1B1B1B1B1B34
:202E80000000000000011B1B1B1B1B1B1B1B1B1B0000000000000101010101010101010119
:202EA000000000000000000E0E0E0E0E0E0E0E0E0000000000000000000000000000000094
:202EC0000000000000000000000000000000000000000000000000000000000000000000F2
:202EE0000000000000000000000000000000000000000000000000000000000000000000D2
:202F00001B1B1B1B1B1B1B1B1B010E0E0000011B1B1B1B1B1B1B1B1B010E0E000000011B74
:202F20001B1B1B1B1B1B1B1B1B010E000000011B1B1B1B1B1B1B1B1B1B1B010E0000011B3A
:202F40001B1B1B1B1B1B1B1B1B1B1B010E00011B1B011B1B1B1B1B1B1B1B1B1B010E011BC8
:202F60001B011B1B1B1B1B1B1B1B1B1B1B01011B1B01011B1B1B1B1B1B1B1B1B1B01011BA7
:202F80001B010E011B1B1B1B1B1B1B01010E011B010E0E011B1B1B1B1B01010E0E0E00014B
:202FA0000E0E0000011B1B01010E0E0E00000000000000000001010E0E0E00000000000066
:202FC0000000000000000E0E000000000000000000000000000000000000000000000000D5
:202FE0000000000000000000000000000000000000000000000000000000000000000000D1
:203000001B1B1B1B1B1B1B1B1B1B1B1B1B1B1B011B1B1B1B1B1B1B1B1B1B01010101010EF9
:203020001B1B1B1B1B1B1B1B1B1B010E0E0E01011B1B1B1B1B1B1B1B1B1B010101011B1B0D
:203040001B1B1B1B1B1B1B1B1B1B1B1B1B1B1B1B1B1B1B1B1B1B1B1B1B1B1B1B1B1B1B1B10
:203060001B1B1B1B1B1B1B1B1B1B1B1B1B1B1B1B1B1B1B1B1B1B1B1B1B1B1B1B1B1B1B1BF0
:203080001B1B1B1B1B1B1B1B1B1B1B1B1B1B1B1B0101010101010101010101010101010170
:2030A0000E0E0E0E0E0E0E0E0E0E0E0E0E0E0E0E0000000000000000000000000000000030
:2030C0000000000000000000000000000000000000000000000000000000000000000000F0
:2030E0000000000000000000000000000000000000000000000000000000000000000000D0
:203100000E0E011B1B1B1B1B1B01011B1B1B1B1B0E011B1B1B1B1B1B1B01011B1B1B1B1B12
:2031200001011B1B1B1B1B1B1B0101011B1B1B1B1B011B1B1B1B1B1B1B1B1B1B1B1B1B1BCB
:203140001B011B1B1B1B1B1B1B1B1B1B1B1B1B1B011B1B1B1B1B1B1B1B1B1B1B1B1B1B1B43
:20316000011B1B1B1B1B1B1B1B1B1B1B1B1B1B1B011B1B1B1B1B1B011B1B1B1B1B1B1B1B3D
:20318000011B1B1B1B1B1B011B1B1B01011B1B1B0E0101010101010E011B010E0E01010189
:2031A0000E000E0E0E0E0E0E00010E0E00000E0E000000000000000000000E000000000066
:2031C0000000000000000000000000000000000000000000000000000000000000000000EF
:2031E0000000000000000000000000000000000000000000000000000000000000000000CF
:203200001B1B1B1B1B1B010E0000000000011B1B1B1B1B1B1B1B010E0000000000011B1BDE
:203220001B1B1B1B1B1B1B010E00000000011B1B1B1B1B1B1B1B1B010E00000000011B1B88
:203240001B1B1B1B1B1B1B010E00000000011B1B1B1B1B1B1B1B1B010E00000000011B1B68
:203260001B1B1B1B1B1B1B1B010E000000011B1B1B1B1B1B1B1B1B1B010E000000011B1B12
:203280001B1B1B1B1B1B1B1B010E000000011B1B01010101010101010E0E000000000101EA
:2032A0000E0E0E0E0E0E0E0E0E0000000000000E0000000000000000000000000000000082
:2032C0000000000000000000000000000000000000000000000000000000000000000000EE
:2032E0000000000000000000000000000000000000000000000000000000000000000000CE
:203300001B1B1B1B1B1B1B1B010E0000000000001B1B1B1B1B1B1B1B010E000000000000DF
:203320001B1B1B1B1B1B1B1B010E0000000000001B1B1B1B1B1B1B1B010E000000000000BF
:203340001B1B1B1B1B1B1B1B010E0000000000001B1B1B1B1B1B1B1B010E0000000000009F
:203360001B1B1B1B1B1B1B1B010E0000000000001B1B1B1B1B1B1B1B010E0000000000007F
:203380001B1B1B1B1B1B1B1B010E00000000000001010101010101010E0E00000000000022
:2033A0000E0E0E0E0E0E0E0E0E00000000000000000000000000000000000000000000008F
:2033C0000000000000000000000000000000000000000000000000000000000000000000ED
:2033E0000000000000000000000000000000000000000000000000000000000000000000CD
:203400000000000000000000000000000000000000000000000000000000000000000000AC
:2034200000000000000000000000000000000000000000000000000000000000000000008C
:2034400000000000000000000000000000000000000000000000000000000000000000006C
:2034600000000000000000000000000000000000000000000000000000000000000000004C
:2034800000000000000000000000000000000000000000000000000000000000000000002C
:2034A00000000000000000000000000000000000000000000000000000000000000000000C
:2034C000010101010101010101010101010101011B1B1B1B1B1B1B1B1B1B1B1B1B1B1B1B2C
:2034E0001B1B1B1B1B1B1B1B1B1B1B1B1B1B1B1B1B1B1B1B1B1B1B1B1B1B1B1B1B1B1B1B6C
:203500000000000000000000000000000000000000000000000000000000000000000000AB
:2035200000000000000000001C1C1C1C0100000000000000000000001C1C1C1C0100001C8D
:2035400000000000000000001C1C1C1C0100001C00000000000000001C1C1C1C01001C1C35
:2035600000000000000000001C1C1C1C01001C1C00000000000000001C1C1C1C01001C1CF9
:2035800000000000000000001C1C1C1C01001C1C00000000000000001C1C1C1C01001C1CD9
:2035A00000000000000000001C1C1C1C01001C1C00000000000000001C1C1C1C0100001CD5
:2035C0000000000000001C1C1C1C1C1C010000000000000000001C1C1C1C1C0101000000B4
:2035E0000000000000000001010101010000000000000000000000000000000000000000C6
:203600000000000000000000000000000000000000000000000000000000000000000000AA
:20362000001C1C1C1C010000001C1C1C1C1C01001C1C1C1C1C1C1C0100001C1C1C1C1C013A
:203640001C1C1C1C1C1C1C0100001C1C1C1C1C011C1C1C1C1C1C1C1C0100001C1C1C1C01C6
:203660001C1C01011C1C1C1C0100001C1C1C1C1C1C1C01001C1C1C1C010000001C1C1C1CF9
:203680001C1C01001C1C1C1C010000001C1C1C1C1C1C01001C1C1C1C010000001C1C1C1CF6
:2036A0001C1C01001C1C1C1C010000001C1C1C1C1C1C01001C1C1C01010000001C1C1C1CF1
:2036C0001C1C1C1C1C1C0101000000001C1C1C1C001C1C1C1C010100000000001C1C1C1CEE
:2036E0000000010101010000000000000001010100000000000000000000000000000000C3
:203700000000000000000000000000000000000000000000000000000000000000000000A9
:203720001C1C1C01001C1C1C1C1C1C011C1C1C1C1C1C01011C1C1C1C1C1C1C011C1C1C1CAC
:203740001C1C011C1C1C1C1C1C1C1C011C1C1C1C1C01011C1C1C1C1C1C1C1C011C1C1C1C70
:203760001C01001C1C1C1C1C1C01010100011C1C010100001C1C1C1C1C01000000001C1C81
:2037800001000000001C1C1C1C01000000001C1C0100000000001C1C1C1C010000001C1CD5
:2037A000010000000000001C1C1C010000001C1C010000000000001C1C1C010000001C1CED
:2037C000010000001C1C1C1C1C1C010000001C1C01000000001C1C1C1C01010000001C1C5C
:2037E0000100000000000101010100000000000100000000000000000000000000000000C3
:203800000000000000000000000000000000000000000000000000000000000000000000A8
:203820001C1C1C1C01001C1C1C1C01000000001C1C1C1C1C01001C1C1C1C0100001C1C1C54
:203840001C1C1C1C01001C1C1C1C01001C1C1C1C1C1C1C1C01001C1C1C1C011C1C1C1C1CA8
:203860001C1C010101001C1C1C1C011C1C1C1C1C1C1C010000001C1C1C1C011C1C1C1C1CDA
:203880001C1C010000001C1C1C1C011C1C1C1C011C1C010000001C1C1C1C011C1C1C1C01F2
:2038A0001C1C010000001C1C1C1C01001C1C1C011C1C010000001C1C1C1C01001C1C1C1CEF
:2038C0001C1C010000001C1C1C1C0100001C1C1C1C1C010000001C1C1C1C01000000011C23
:2038E0000101010000000001010101000000000000000000000000000000000000000000C1
:203900000000000000000000000000000000000000000000000000000000000000000000A7
:203920001C1C1C1C1C011C1C1C1C0100001C1C011C1C1C1C1C011C1C1C1C01001C1C1C1CE2
:203940001C1C1C1C1C011C1C1C1C01001C1C1C1C1C1C1C1C1C011C1C1C1C011C1C1C1C1C6F
:203960001C01010101011C1C1C1C011C1C1C1C010101000000001C1C1C1C1C1C1C1C010160
:203980000100000000001C1C1C1C1C1C1C1C01000000000000001C1C1C1C1C1C1C0101007F
:2039A0000000000000001C1C1C1C1C1C1C1C01001C01000000001C1C1C1C1C1C1C1C1C010C
:2039C0001C1C1C1C1C011C1C1C1C011C1C1C1C011C1C1C1C1C011C1C1C1C01001C1C1C1C0A
:2039E000010101010101000101010100001C0101000000000000000000000000000001009E
:203A00000000000000000000000000000000000000000000000000000000000000000000A6
:203A200000000000001C1C1C1C01001C1C1C01001C010000001C1C1C1C01001C1C1C1C01C1
:203A400001010000001C1C1C1C01001C1C1C1C1C01000000001C1C1C1C01001C1C1C1C1C69
:203A600001000000001C1C1C1C01001C1C1C1C1C00000000001C1C1C1C01001C1C1C1C1C4B
:203A800000000000001C1C1C1C01001C1C1C1C1C00000000001C1C1C1C01001C1C1C011C47
:203AA00000000000001C1C1C1C01001C1C1C010000000000001C1C1C1C01001C1C1C01007A
:203AC00000000000001C1C1C1C01001C1C1C010001000000001C1C1C1C01001C1C1C010059
:203AE0000100000000000101010100000101010000000000000000000000000000000000BE
:203B00000000000000000000000000000000000000000000000000000000000000000000A5
:203B2000001C1C1C010000001C1C1C1C1C1C0100001C1C1C010000001C1C1C1C1C1C1C1C52
:203B4000011C1C1C010000001C1C1C1C1C1C1C1C1C1C1C1C010000001C1C1C1C1C1C1C1CDE
:203B60001C1C1C1C010000001C1C1C1C011C1C1C1C1C1C1C010000001C1C1C1C011C1C1CD9
:203B80001C1C1C1C010000001C1C1C1C011C1C1C1C1C1C1C010000001C1C1C1C011C1C1CB9
:203BA0001C1C1C1C010000001C1C1C1C1C1C1C1C001C1C1C010000001C1C1C1C1C1C0101B5
:203BC00000001C1C010000001C1C1C1C010101000000001C010000001C1C1C1C01000000AB
:203BE0000000000001000000000101010100000000000000000000000000000000000000C0
:203C00000000000000000000000000000000000000000000000000000000000000000000A4
:203C20000000000000001C1C1C1C010000001C1C010000001C1C1C1C1C1C1C1C01001C1CC1
:203C4000010000001C1C1C1C1C1C1C1C01001C1C1C01001C1C1C1C1C1C1C1C1C1C011C1CDC
:203C60001C01001C1C1C1C01011C1C1C1C011C1C1C01001C1C1C1C01001C1C1C1C011C1CD5
:203C80001C01001C1C1C1C01001C1C1C1C011C1C0101001C1C1C1C01001C1C1C1C011C1CD1
:203CA0000100001C1C1C1C01001C1C1C1C011C1C010000001C1C1C01001C1C1C01011C1C05
:203CC00000000000001C1C1C1C1C1C0101001C1C0000000000001C1C1C1C010100001C1C58
:203CE0000000000000000001010101000000000100000000000000000000000000000000BF
:203D00000000000000000000000000000000000000000000000000000000000000000000A3
:203D20001C1C1C1C1C010000001C1C1C1C1C1C1C1C1C1C1C1C1C1C01001C1C1C1C1C1C1CA9
:203D40001C1C1C1C1C1C1C1C011C1C1C1C1C1C1C1C1C1C1C1C1C1C1C011C1C1C1C1C1C1C19
:203D60001C1C01011C1C1C1C0100011C1C1C1C011C1C01001C1C1C1C0100001C1C1C1C010B
:203D80001C1C01001C1C1C010100001C1C1C1C011C1C1C1C1C1C01010000001C1C1C1C0108
:203DA0001C1C1C1C1C1C01000000001C1C1C1C011C1C1C1C1C1C1C010000001C1C1C1C01B3
:203DC0001C1C011C1C1C1C010000001C1C1C1C011C1C01001C1C1C1C0100001C1C1C1C01AD
:203DE00001010100001C01010100000001010101000000000000010000000000000000009C
:203E00000000000000000000000000000000000000000000000000000000000000000000A2
:203E20001C01000000001C1C1C1C0100000000001C01000000001C1C1C1C1C01000000004A
:203E40001C01000000001C1C1C1C1C1C010000001C01000000001C1C1C1C1C1C01000000D6
:203E600001010000000000011C1C1C1C0100000000000000000000001C1C1C1C010000005D
:203E800000000000000000001C1C1C010100000000000000000000001C1C1C010000000077
:203EA000000000000000001C1C1C010100000000000000000000001C1C0101000000000072
:203EC0000000000000001C1C1C1C1C1C010000000000000000001C1C1C1C1C0101000000AB
:203EE0000000000000000001010101010000000000000000000000000000000000000000BD
:203F00000000000000000000000000000000000000000000000000000000000000000000A1
:203F200000000000000000000000001C1C1C1C0100000000000000000000001C1C1C1C019F
:203F400000000000000000000000001C1C1C1C0100000000000000000000001C1C1C1C017F
:203F600000000000000000000000001C1C1C1C0100000000000000000000001C1C1C1C015F
:203F800000000000000000000000001C1C1C1C0100000000000000000000001C1C1C1C013F
:203FA00000000000000000000000001C1C1C1C0100000000000000000000001C1C1C1C011F
:203FC0000000000000000000000000001C1C1C1C000000000000000000000000001C1C1C1D
:203FE0000000000000000000000000000000010100000000000000000000000000000000BF
:204000000000000000000000000000000000000000000000000000000000000000000000A0
:20402000001C1C1C01001C1C1C1C1C1C01000000001C1C1C01001C1C1C1C1C1C1C1C01004C
:20404000001C1C1C01001C1C1C1C1C1C1C1C0100001C1C1C01001C1C1C1C1C1C1C1C1C01D8
:20406000001C1C1C01001C1C1C1C011C1C1C1C01001C1C1C01001C1C1C1C011C1C1C1C01D2
:20408000001C1C1C01001C1C1C1C011C1C1C1C01001C1C1C01001C1C1C1C011C1C1C0101CD
:2040A000001C1C1C01001C1C1C1C1C1C1C1C0100001C1C1C01001C1C1C1C1C1C01010100CA
:2040C0001C1C1C1C01001C1C1C1C0101010000001C1C1C0101001C1C1C1C01000000001C19
:2040E0000101010100000001010101000000001C000000000000000000000000000000009C
:20410000000000000000000000000000000000000000001C1C1C010000000000000000004A
:204120000000001C1C1C011C1C1C1C1C1C0100000000001C1C01011C1C1C1C1C1C1C1C0166
:2041400000001C1C1C01001C1C1C1C1C1C1C1C1C00001C1C0101001C1C1C1C1C1C1C1C1CD8
:2041600000001C1C0100001C1C1C1C01011C1C1C001C1C1C0100001C1C1C1C0100001C1C42
:20418000001C1C010100001C1C1C1C0100001C1C001C1C010000001C1C1C1C0100001C1C5A
:2041A0001C1C01010000001C1C1C1C0100001C1C1C1C01000000001C1C1C1C01001C1C1C1E
:2041C0001C1C01000000001C1C1C1C1C1C1C1C011C0101000000001C1C1C1C1C1C010101FC
:2041E0001C010000000000000101010101010000010100000000000000000000000000009A
:2042000000000000000000000000000000000000000000000000000000000000000000009E
:2042200000000000001C1C1C1C010000001C1C1C0000001C1C1C1C1C1C1C1C0100001C1CA0
:204240000100001C1C1C1C1C1C1C1C0100001C1C1C011C1C1C1C1C1C1C1C1C1C01001C1CD6
:204260001C011C1C1C1C01011C1C1C1C0100001C1C011C1C1C1C01001C1C1C1C0100001C07
:204280001C011C1C1C1C01001C1C1C1C0100001C1C011C1C1C1C01001C1C1C1C0100000004
:2042A0001C011C1C1C1C01001C1C1C1C010000000101001C1C1C01001C1C1C010100000052
:2042C000010000001C1C1C1C1C1C01010000000000000000001C1C1C1C01010000000000C1
:2042E0000000000000000101010100000000000000000000000000000000000000000000BA
:2043000000000000000000000000000000000000000000000000000000000000000000009D
:204320001C1C01001C1C1C1C1C01001C1C1C1C1C1C1C01001C1C1C1C1C01001C1C011C1CF4
:204340001C1C0100001C1C1C1C011C1C1C011C1C1C1C1C01001C1C1C1C011C1C1C011C1CD3
:204360001C1C1C011C1C1C1C1C011C1C01011C1C1C1C1C011C1C1C1C1C011C1C01001C1C96
:204380001C1C1C1C1C011C1C1C1C1C1C01001C1C1C1C1C1C1C011C1C1C1C1C0101001C1C5C
:2043A0001C1C1C1C1C011C1C1C1C1C0100001C1C1C1C1C1C1C011C1C1C1C1C0100001C1C59
:2043C000001C1C1C0101001C1C1C010100001C1C001C1C1C0100001C1C1C010000001C1C17
:2043E0000000010101000000010101000000000100000000000000000000000000000000B6
:2044000000000000000000000000000000000000000000000000000000000000000000009C
:204420001C0100001C1C1C010000000000001C1C1C1C01001C1C1C01000000001C1C1C1CD4
:204440001C1C1C011C1C1C010000001C1C1C1C1C1C1C1C1C1C1C1C0100001C1C1C1C1C1CB9
:204460001C1C1C1C1C1C1C0100001C1C1C1C1C1C1C1C1C1C1C1C1C0100001C1C1C1C1C017D
:204480001C1C1C1C1C1C1C0100001C1C1C1C01011C011C1C1C1C1C0100001C1C1C1C0100CA
:2044A0001C01001C1C1C1C010000001C1C1C01001C0100001C1C1C010000001C1C1C1C1C1B
:2044C0001C010000001C1C01000000001C1C1C1C1C01000000001C010000000000011C1CA3
:2044E0000101000000000001000000000000000100000000000000000000000000000000B8
:2045000000000000000000000000000000000000000000000000000000000000000000009B
:204520001C1C1C1C011C1C1C1C01001C1C1C01001C1C1C1C011C1C1C1C01001C1C1C01000D
:204540001C1C1C1C011C1C1C1C01001C1C1C01001C1C1C1C011C1C1C1C01001C1C1C0100ED
:2045600001010101011C1C1C1C01001C1C1C010001000000001C1C1C1C01001C1C1C0100A9
:2045800000000000001C1C1C1C01001C1C1C010000000000001C1C1C1C01001C1C1C01008F
:2045A00000000000001C1C1C1C01001C1C1C010001000000001C1C1C1C01001C1C1C01006E
:2045C0001C1C1C1C01001C1C1C1C1C1C1C1C01001C1C1C1C0100001C1C1C1C1C1C0101006E
:2045E0000101010101000000010101010101000000000000000000000000000000000000B0
:2046000000000000000000000000000000000000000000000000000000000000000000009A
:204620001C1C1C1C1C1C1C01000000001C1C1C1C1C1C1C1C1C1C1C1C1C01001C1C1C1C1CBC
:204640001C1C1C1C1C1C1C1C1C1C1C1C1C1C1C1C1C1C1C1C1C1C1C1C1C1C1C1C1C1C1C1CDA
:204660001C1C1C1C01011C1C1C1C1C1C1C1C1C1C1C1C1C1C01001C1C1C1C011C1C1C1C1C42
:204680001C1C1C1C01001C1C1C0101001C1C1C1C1C1C1C1C1C1C1C1C01010000001C1C1CAD
:2046A0001C1C1C1C1C1C1C1C0100000000001C1C1C1C1C1C1C1C1C1C1C01000000001C1CAC
:2046C0001C1C1C1C011C1C1C1C01001C1C1C1C1C1C1C1C1C01001C1C1C1C01001C1C1C1C1A
:2046E000000101010100001C01010100000101010000000000000000010000000000000093
:20470000000000000000000000000000000000000000000000000000000000000000000099
:204720001C1C010000001C1C1C1C010000001C1C1C1C01001C1C1C1C1C1C1C1C01001C1C45
:204740001C1C01001C1C1C1C1C1C1C1C01001C1C1C1C011C1C1C1C1C1C1C1C1C1C011C1C7D
:204760000101011C1C1C1C01011C1C1C1C011C1C0100001C1C1C1C01001C1C1C1C011C1C00
:204780000100001C1C1C1C01001C1C1C1C011C1C1C01001C1C1C1C01001C1C1C1C011C1CC7
:2047A0001C01001C1C1C1C01001C1C1C1C011C1C1C0100001C1C1C01001C1C1C01011C1CC2
:2047C0001C010000001C1C1C1C1C1C0101001C1C0101000000001C1C1C1C010100001C1C2E
:2047E0000100000000000001010101000000000100000000000000000000000000000000B3
:20480000000000000000000000000000000000000000000000000000000000000000000098
:204820001C1C1C1C1C010000000000001C1C1C1C1C1C1C1C1C1C1C01000000001C1C1C1C46
:204840001C1C1C1C1C1C1C1C010000001C1C1C1C1C1C1C1C1C1C1C1C010000001C1C1C1CB6
:204860001C1C01011C1C1C1C010000001C1C1C1C1C1C01001C1C1C1C010000001C1C1C1C03
:204880001C1C01001C1C1C01010000001C1C1C1C1C1C1C1C1C1C0101000000001C1C1C1CFF
:2048A0001C1C1C1C1C1C0100000000001C1C1C1C1C1C1C1C1C1C1C01000000001C1C1C1CAA
:2048C0001C1C011C1C1C1C01000000001C1C1C1C1C1C01001C1C1C1C010000001C1C1C1CA4
:2048E00001010100001C010101000000000101010000000000000100000000000000000092
:20490000000000000000000000000000000000000000000000000000000000000000000097
:204920000100001C1C0100001C1C1C1C1C1C1C0101001C1C1C1C1C011C1C1C1C1C1C1C0125
:2049400001001C1C1C1C01011C1C1C1C1C1C1C01011C1C1C1C1C01001C1C1C1C1C1C1C01CC
:20496000011C1C1C1C0101001C1C1C1C010101011C1C1C1C010100001C1C1C1C010000006D
:204980001C1C1C1C010000001C1C1C1C1C1C1C011C1C1C01010000001C1C1C1C1C1C1C01C6
:2049A0001C1C1C1C010000001C1C1C1C010101011C1C1C1C1C0100001C1C1C1C0100000014
:2049C000011C1C1C1C0100001C1C1C1C1C1C1C0101001C1C1C1C01001C1C1C1C1C1C1C0169
:2049E0000100001C010101000001010101010101000000000100000000000000000000008F
:204A0000000000000000000000000000000000000000000000000000000000000000000096
:204A2000001C1C1C1C1C01001C1C1C01001C1C1C00001C1C1C1C1C011C1C01011C1C1C1C09
:204A400000001C1C1C1C1C011C1C011C1C1C1C1C0000001C1C1C1C011C01011C1C1C1C1CE9
:204A60000000001C1C1C1C1C1C01001C1C1C1C1C000000001C1C1C1C010100001C1C1C1C1F
:204A8000000000001C1C1C1C01000000001C1C1C000000001C1C1C1C0100000000001C1CA8
:204AA000000000001C1C1C1C010000000000001C000000001C1C1C1C010000000000001CDC
:204AC000000000001C1C1C1C010000001C1C1C1C000000001C1C1C1C01000000001C1C1C30
:204AE0000000000000010101010000000000010100000000000000000000000000000000B0
:204B0000000000000000000000000000000000000000000000000000000000000000000095
:204B20001C1C1C0100000000001C1C1C1C0100001C1C1C01000000001C1C1C1C1C010000CD
:204B40001C1C1C01000000001C1C1C1C1C0100001C1C1C01000000001C1C1C1C1C1C010075
:204B60001C010101000000001C1C1C1C1C1C01001C010000000000001C1C1C1C1C1C1C018B
:204B80001C0100000000001C1C011C1C1C1C1C011C1C01000000001C1C01001C1C1C1C014F
:204BA0001C1C01000000001C1C01001C1C1C1C011C1C01000000001C1C1C1C1C1C1C1C01F8
:204BC0001C1C010000001C1C011C1C1C1C1C1C1C1C01010000001C1C011C01011C1C1C1CBA
:204BE0000101000000000001010001000001010100000000000000000000000000000000AD
:204C0000000000000000000000000000000000000000000000000000000000000000000094
:204C2000001C1C1C0100001C1C1C01001C1C1C1C001C1C1C1C01001C1C1C01001C1C1C1C24
:204C4000001C1C1C1C1C011C1C1C01001C1C1C1C001C1C1C1C1C1C1C1C1C01001C1C1C1C95
:204C6000001C1C1C1C1C1C1C1C1C01001C1C1C1C001C1C1C1C1C1C1C1C1C01001C1C1C1C5A
:204C8000001C1C1C1C1C1C1C1C1C01001C1C1C1C001C1C1C011C1C1C1C1C01001C1C1C1C55
:204CA000001C1C1C01001C1C1C1C01001C1C1C1C001C1C1C0100001C1C1C01001C1C1C1CA4
:204CC000011C1C1C010000001C1C01001C1C1C1C011C1C1C01000000001C01001C1C1C1CF2
:204CE0000100010101000000000001000001010100000000000000000000000000000000AC
:204D0000000000000000000000000000000000000000000000000000000000000000000093
:204D20001C1C0100000000000000001C1C1C1C1C1C1C1C1C0100000000001C1C1C1C1C1C95
:204D40001C1C1C1C1C010000001C1C1C1C1C1C1C1C1C1C1C1C1C0100001C1C1C1C1C1C1C95
