:020000040000FA
:201FFD004C0B20F25604010B200000000000640120B426A9A085F0A90085F1A9378D00D05C
:20201D00A9008D01D09C04D0A9888D0FD0A9888D0ED0A9888D0DD0A9548D02D0A9068D03BD
:20203D00D0A9008D88D2A9498D89D2A9018D8AD2A9008D84D2A9358D85D2A9018D86D2A930
:20205D00008D80D2A9008D81D2A9018D82D2A9018D18D2A9148D1CD2A90F8D1ED2A9B08DFC
:20207D0019D2A95C8D1AD2A9018D1BD2A9018D0CD2A9148D10D2A90F8D12D2A9588D0DD2DF
:20209D00A95A8D0ED2A9018D0FD2A9008D00D2A9148D04D2A90FA9008D01D2A9588D02D250
:2020BD00A9018D03D2A9018501A9008580A9088581A9008582A9D08583A200A0228C0D2B09
:2020DD00A000B1809182C8C004D0F7E8EC0D2BF01D18A58069048580A5816900858118A592
:2020FD008269048582A583690085834CDD206401A9008580A9058581A9C164828583A0002C
:20211D00A203A9018501B1809182C8D0F9E681E683CAD0F26401A9118DA0DAA9088DA1DABD
:20213D00A9938DA2DAA9018DA3DAA9608DA4DA8D062BA9018DA5DA8D072BA9328DA6DA8DCD
:20215D00082B9CA7DA9C092BA9558DA6D9A200A9009D00D49D00D5E8E01890F3F0F1A9001D
:20217D00098085F320F0FFB004690185D020A426A200BD58159570E8E009D0F69C00D2A956
:20219D00018DA6D6A90F8D18D48D18D5A9378D05D48D05D58D0CD48D0CD5A9528D06D58DF5
:2021BD0006D48D0DD58D0DD4A9118DA0D9A9088DA1D9A9638DA2D9A9018DA3D9A9488DA4EA
:2021DD00D99CA5D99CA7D9A200A9389D5D2AA9009D712AA9159D492ABD992A9D852ABDAD47
:2021FD002A8538A9DA8539A000A9119138C8DA8A0AAABDC12A9138C8BDC22A9138FAC8A981
:20221D00019138C8BD5D2A9138C8A9009138C8BD852A9138C8A9009138E8E014F00280A99A
:20223D00A9018DF0289CEE289CEF289CEC289CED289C1C299C1D29A9048D1F29A200ADA434
:20225D00D629031869049D8529ADA4D62903A8B9F02A9D5D29A9609D3529A9019D49299D44
:20227D002129A9009D7129E8E01490D220C022ADEA28F0034C8922A9018D00D2A200AD20B6
:20229D00296978852220C022AD2029C522D0F620C022AD102BF0F88E102BEEEA28EEEB282F
:2022BD004C9921A5F2100B2000FFB00620D0224CC02260A5A0C952F032C904F00160A5A4EB
:2022DD0085D89C0E2B9C0F2B9C102BA5D82901F005CE0F2B8009A5D82902F003EE0F2BA56D
:2022FD00D82910F005A9018D102B6020A42620C727202C23203C26EE2029ADEA28F00F20EB
:20231D00402520B02320352420332720012760ADF42AD00FAD0F2BF076C901F04EC9FFF0F6
:20233D005E806C18ADEB2A6DF52A8DEB2A8DA6D9EEEE2AADEE2A29030AAAADF52A300EBDB0
:20235D00F62A8DA1D9BDF72A8DA2D9800EBDFE2A8DA1D9BDFF2A8DA2D98000AEED2ABDF0F9
:20237D002ACDEB2AD0299CF42A8024ADED2AC903F01DEEF42AEEED2AA9028DF52A8010AD9B
:20239D00ED2AF00BEEF42ACEED2AA9FD8DF52A604C3424AD102BF05AADEF2AC915D0F12010
:2023BD00C2234C3424A200A9018D112BBD492AC915D036BD852ACDEB2AD02E8EEF2AA901B1
:2023DD009D492AA9409D5D2ABDAD2A8538A9DA8539A004BD5D2A9138A9088DA1D9A9778D1B
:2023FD00A2D9A9018DA3D98008E8E015D0B98EEF2A60AD112BF020ADEF2AAAFE492AA91505
:20241D008DEF2AA9088DA1D9A97B8DA2D9A9018DA3D99C112B800060A200BD492AC902D03D
:20243D002218BD5D2A69019D5D2ABD712A69009D712ABD5D2AC960900DBD712AF008A9FF78
:20245D009D492A4C3725A000BD5D2AD935299017BD712AD94929D00FBD852AD95D29D007C1
:20247D00B97129D0028008C8C015D0DC4CFB24A901997129A9389D5D2AA9009D712AA9155D
:20249D009D492ABD992A9D852AF818ADEC2869018DEC28ADED2869008DED288680AEF028CE
:2024BD0018ADEE287D242B8DEE28ADEF2869008DEF28D818AD1C2969018D1C29AD1D29696A
:2024DD00008D1D29BD1E2BCD1C29D010EE1E29EEF028ADF028C906D003CEF028A680BDADFC
:2024FD002A8538A9DA8539A000A911C8DA8A0AAABDC12A9138C8BDC22A9138FAC8A90191B5
:20251D0038C8BD5D2A9138C8BD712A9138C8BD852A9138C8A90091388000E8E014F0034CD6
:20253D00372460A200BD2129D0034C3326BD9929F006DE99294C3326BD7129D07FBD8529D7
:20255D009D992938BD3529E9019D3529BD4929E9009D4929FEC12918BDC12929037DAD297A
:20257D000AA8B9E929852EB9EA29852F20A325BD3529C95BD00DBD4929D008A9019D7129A2
:20259D009CEA284C3326BDD529852CA9D9852DA000A911912CC8A52E912CC8A52F912CC89B
:2025BD00A902912CC8BD3529912CC8BD4929912CC8BD5D29912CC8A900912C60A9009D990D
:2025DD002918BD352969019D3529BD492969009D4929DEC12918BDC12929037DAD290AA8BE
:2025FD00B9192A852EB91A2A852F20A325BD3529C961D022BD4929F01DA9009D7129ADA4D2
:20261D00D62903186D1F299D8529ADA4D62903A8B9F02A9D5D29E8E014F0034C422560AD03
:20263D000A2BD01E38AD062BE9018D062B8DA4DAAD072BE9008D072B8DA5DA3020A9808DF8
:20265D000A2BCE0A2BAD0C2BD02B38AD082BE9018D082B8DA6DAA9068D0C2B8018A9608DD6
:20267D00A4DA8D062BA9018DA5DA8D072BA9328DA6DA8D082B38AD0B2BE9018D0B2BAD0C63
:20269D002BE9008D0C2B60E6D0A5D085F485F5A90085F320F0FF60A9028501A200A9209DFE
:2026BD0000C09D00C19D00C29D00C39D00C49D00C59D00C69D00C79D00C89D00C99D00CA64
:2026DD009D00CB9D00CC9D00CD9D00CE9D00CD9D00CE9D00CF9D00D09D00D19DC0D1E8D035
:2026FD00BC640160AD1E29F02C9C1E29AEF028BD122BAAA9FF9D492ABDAD2A8530A9DA85D6
:20271D0031A000A9009130CAE0FFD0E7AEF028BD182B8D1F2960A9028501ADEF284A4A4A33
:20273D004AAABDF1288D26C0ADEF28290FAABDF1288D27C0ADEE284A4A4A4AAABDF1288D57
:20275D0028C0ADEE28290FAABDF1288D29C0ADED284A4A4A4AAABDF1288D43C0ADED28299E
:20277D000FAABDF1288D44C0ADEC284A4A4A4AAABDF1288D45C0ADEC28290FAABDF1288D1B
:20279D0046C0ADF028290FAABDF1288D10C0A200BDFB289D1AC0BD06299D38C0BD11299D2E
:2027BD0005C0E8E00B90E9640160ADEB28F00AEE3009AD3009C90AF001609C3009A000B115
:2027DD0070C9AAF034C9A8F016C9FFD017A9348570A9098571ADEA28D0E39CEB2880DE9C1A
:2027FD0004D48015AA9C04D4BD88088D00D4BD89088D01D4A9118D04D418A5706901857028
:20281D00A57169008571A000B172C9AAF02CC9A8F00EC9FFD00FA93D8572A90C857380E6CE
:20283D009C0BD48015AA9C0BD4BD88088D07D4BD89088D08D4A9118D0BD418A57269018596
:20285D0072A57369008573A000B174C9AAF02CC9A8F00EC9FFD00FA9468574A90F857580EC
:20287D00E69C04D58015AA9C04D5BD88088D00D5BD89088D01D5A9118D04D518A574690111
:20289D008574A57569008575A000B176C9AAF02FC9A8F00EC9FFD00FA94F8576A91285778C
:2028BD0080E69C0BD5801838E926AA9C0BD5BD88088D07D5BD89088D08D5A9118D0BD51867
:2028DD00A57669018576A5776900857760000000000000013031323334353637383920202C
:2028FD0020202053434F52453A4861707079204B6964733A20202020204C6576656C3A00EC
:20291D00000000000101010101010101010101010101010101010101606060606060606086
:20293D006060606060606060606060600101010101010101010101010101010101010101E6
:20295D005585B5E55585B5E55585B5E55585B5E55585B5E500000000000000000000000016
:20297D00000000000000000003060404070201040801030205090A050204080200000000E0
:20299D00000000000000000000000000000000000004080C10140004080C10140004080C8A
:2029BD001014000400000000000000000000000000000000000000000008101820283038F2
:2029DD004048505860687078808890980000000400080004002000240028002400400044A6
:2029FD00004800440060006400680064008000840088008400A000A400A800A4000C0010E2
:202A1D0000140010002C003000340030004C005000540050006C007000740070008C009099
:202A3D000094009000AC00B000B400B0000000000000000000000000000000000000000095
:202A5D003838383838383838383838383838383838383838000000000000000000000000F9
:202A7D00000000000000000000000000000000000000000000000000000000005585B5E5C5
:202A9D005585B5E55585B5E55585B5E55585B5E50008101820283038404850586068707889
:202ABD0080889098087F08830887088B088F0883088B088F0887087F0887087F0883088FFB
:202ADD00088B088B088F087F08830887480055000000155585B5E50000085F08630867080C
:202AFD0063086B086F0873086F000000000000000000000000000003070B0F00040302014C
:0D2B1D0000000A14283CFF000102040A1504
:200500000000000000000000001818181800180000666666000000000066FF6666FF66009B
:20052000183E603C067C180000666C18306646001C361C386F663B0000181818000000006B
:200540000C18303030180C0030180C0C0C18300000663CFF3C6600000018187E18180000EE
:2005600000000000001818300000007E0000000000000000001818000003060C18306000B0
:20058000007CFECEC6E6FE7C003878783838FEFE007CFE0E3C78FEFE00FEFE0C1CC6FE7CBD
:2005A000001C3C7CECFEFE1C00FEE0FE06E67E3C003EFEE0FEE6FE7C00FEFE1C38707070C7
:2005C000007CEE7CEEEEFE7C003C667E3E0E7E7C00001800001800000000180000181830D1
:2005E0000C18306030180C0000007E007E00000030180C060C1830003C66060C1800180065
:20060000003C666E6E603E0000387CEEEEFEEEEE00FCE6E6FCE6E6FC007CFECEC0CEFE7C78
:2006200000F8FCE6E6E6FCF800FEFEE0F8E0FEFE00FEFEE0F8E0E0E0007EFEC0CECEFE7CAA
:2006400000EEEEEEFEFEEEEE00FEFE383838FEFE001E1E0606C6FE7C00E6EEFCF8ECEEEE40
:2006600000E0E0E0E0E0FEFE00EEEEFED6C6EEEE00CEEEFEFEFEEEE6007CFEEEEEEEFE7C84
:2006800000FCEEEEFCE0E0E0007CFEEEEEECFE7600FCEEEEFCECEEEE007EFEF07C0EFEFCA4
:2006A00000FEFE383838383800EEEEEEEEEEFEFE00EEEEEEEEFE7C3800C6C6D6FEFEEEC608
:2006C00000EEEEFE38FEEEEE00EEEEFE7C38383800FEFE3C78F0FEFE3C30303030303C002C
:2006E000006030180C0603003C0C0C0C0C0C3C0000183C66000000003399CC663399CC66D3
:200700000018181800000000003C3E063E667E3E0070707C76767E7C00003E7E60607E3E37
:20072000000E0E3E6E6E7E3E00003C666E7C703E001E387E3E38383800003C7E663E067CF3
:200740000070707C7E7676760038007838387C7C000E000E0E0E3E3C0070767C787C767651
:200760000078383838387C7C0000667F7F6B636300007C767676767600003C7E66667E3C8A
:2007800000007C7E667C707000003E7E663E0E0E00007C7E7670707000003E703C0E7E7C6F
:2007A0000038FE3838381E0E0000767676767E3E00006E6E6E7E3C180000636B7F3E3E3680
:2007C0000000667E3C3C7E66000076767E3E1C7800007E7E1C387E7E0C10102010100C00D9
:2007E000101010101010101030080804080830000000304906000000080404081010080036
:2008000000000000342022FF3C2845FF313966FF3B568FFF2671DFFF66A0D9FF9AC3EEFF30
:2008200036F2FBFF50E599FF30BE6AFF6E9437FF2F694BFF244B52FF393C32FF743F3FFF01
:20084000826030FFE16E5BFFFF9B63FFE4CD5FFFFCDBCBFFFFFFFFFFB7AD9BFF877E84FFB0
:200860006A6A69FF525659FF8A4276FF3232ACFF6357D9FFBA7BD7FF4A978FFF306F8AFFB8
:20088000598CC7FF411F1FFF180238025A027E02A302CC02FD02230353038603BB03F403D3
:2008A00030047004B404FC0447059805FA054706A7060C077707E9076108E1086809F809B1
:2008C0008F0A300BF50B8F0C4E0D190EEF0ED30FC310C311D112F0131F156116EA171E19D8
:2008E0009D1A321CDF1DA61F87218623A325E0273F2AC22CD52F3D323A356438BE3B4C3FB9
:200900000F430C47464BC04F7E548459AB5F7A64746AC8707D77987E1F86198E8C96809F4E
:20092000FCA808B356BFF5C8E8D491E1FBEE31FD00000000A8AAAAAAAAAAAAAA48AAAAAAAD
:200940004CAAAAAA4EAAAAAAAAAAAAAAA8AAAAAA54AAAAAA4CAAAAAAAAAAAAAAA8AAAAAAC9
:200960005CAA56AA5AAA56AA52AAAAAAAAAAAAAAAAAAAAAA5AAAAAAAAAAAAAAAAAAAAAAA25
:20098000AAAAAAAAAAAAAAAAAAAAAAAAAAAAAAAAAAAAAAAAA8AAAAAA5AAAA8AA5AAAA8AABD
:2009A0005AAA5CAA68AAAAAAAAAAAAAAAAAAAAAAA8AA64AA62AAAAAAAAAAAAAAAAAAAAAA67
:2009C000A8AA52AA68AAAAAAAAAAAAAAAAAAAAAAA8AAAAAA5AAA5AAA5AAA5AAA5A5C56AAA7
:2009E00056AAAAAA56AA56AA56AA56AA565A5CAA5AAAAAAA5AAAAAAAAAAAAAAA60AAAAAA37
:200A0000AAAAAAAA6EAA6EAA6E7274AA72AA6AAA68AAAAAA68AAAAAA5AAAAAAA72AAAAAA3C
:200A200068AAAAAA78AA6EAA6EAA6A6864AA72AA74AAA8AA62AA60AA62605CAA626262622C
:200A400062605CAA62AA5AAA5AAA54524EAAAAAA4EAAA8AA6AAA6AAA6CAAAAAA6AAA6AAAC4
:200A60006CAAA8AAA8AAAAAAA8AA5EAA5CAA606466AAA8AA6AAA6AAA6A6864AA6AAA6AAAB2
:200A80006A6864AA6A6864AA6A6864AA74726EAA74726EAAA8AAAAAAAAAAAAAA60AA60AA58
:200AA00062AAA8AA60AA60AA62AAA8AA626262AA62AA605C5AAA52AAA8AAAAAA5CAA5CAA1C
:200AC0005C5A56AA5C5C5C5C5C5A56AA5CAA52AA52524E4A48AAAAAA5CAAA8AA6AAA6AAA36
:200AE0006CAAAAAA6AAA6AAA6CAAA8AAA8AAAAAAA8AA5EAA5CAA606466AAA8AA5CAA5CAAC4
:200B00005C5A56AA60AA60AA605C6EAA6A6864AA6A6864AA74726EAA74726EAAA8AAAAAAD5
:200B2000AAAAAAAA5AAA5AAA5AAA5AAA5A5C56AA56AAAAAA56AA56AA56AA56AA565A5CAA3D
:200B40005AAAAAAA5AAAAAAAAAAAAAAA60AAAAAAAAAAAAAA6EAA6EAA6E7274AA72AA6AAAD9
:200B6000A8AAA8AA44AA44AA3EAAA8AA444444444EAAAAAA5CAA52AA52524E4A4848484801
:200B800052AAA8AA78AA78AA78AA72AA78AA7878787672AA627272AA72AA6C6A66AA74AA59
:200BA00074AAA8AA6AAA6AAA6A6864AA6AAA6AAA6A6864AA6A6864AA6A6864AA74726EAAF7
:200BC00074726EAAA8AAAAAAAAAAAAAA60AA60AA62AAA8AA60AA60AA62AAA8AA626262AA15
:200BE00062AA60A85AAA52AAA8AA72AA68AAAAAA68AAAAAA68AAAAAA68AA6AAA64AAAAAAB9
:200C000064AAAAAA64AAAAAA64AA6AAA68AAAAAA68AAAAAA68AAAAAA68AA6AAA64AAAAAA34
:200C200064AA6AAA68AAAAAA60AAAAAA72AAAAAAA8AAAAAAA8AAAAAAAAAAAAAAFFA8AAAA6F
:200C4000AAAAAAAAAAA8AAAAAAAAAAAAAA54AA56AA54AA56AA54AA56AA54AA56AA52AA54AC
:200C6000AA52AA54AA52AA54AA52AA56AAA8AAAAAAAAAAAAAA5AAAAAAA56AA50AA52AAAA94
:200C8000AAAAAAAAAAA8AAAAAAAAAAAAAA4CAAAAAA52AAAAAA5AAA5AAA5AAA5AAA5AAAA85E
:200CA000AA5AAAA8AA5AAAA8AA5AAA5CAA56AAA8AA56AAA8AA56AAA8AA56AA5CAA5AAAA82C
:200CC000AA5AAAA8AA5AAAA8AA5AAA5CAA56AA64605C5A565250AA68646A686A6E72AAAA5C
:200CE000AA72AAAAAA72746EAA6EAAAAAA6EAAAAAA6EAAAAAA6E7274AA72AAAAAA5AAAAA7C
:200D0000AA5AAAAAAA60AA5CAA56AAAAAA56AA56AA565A5CAA5AAA52AA50AAAAAA48AA482F
:200D2000AA484642AA48AA48AA484642AA48AA3EAA3EAA52504CAA42AA52AAA8AA6AAAAADF
:200D4000AA5CAAAAAA74AAAAAA6AAAA8AA62AA68AA68AA6C6466AAAAAA66AAA8AA52AA52A3
:200D6000AA54AAAAAA5252525254AAA8AAA8AAAAAAAAAAAAAA44AA484C4EAAA8AA52AA5277
:200D8000AA52504CAA52AA52AA52504CAA6A6864AA6A6864AA5C5A56AA5C5A56AAA8AAAA59
:200DA000AAAAAAAAAA4AAA4AAA44AAA8AA4AAA44AA44AAA8AA525252AA52AA4E4A48AA442D
:200DC000AA44AAAAAA44AA44AA3EAAA8AA4444444444423EAA74AA6AAA6A6A666260AAAA11
:200DE000AA5CAAA8AA52AA52AA54AAAAAA5252525254AAA8AAA8AAAAAAAAAAAAAA44AA488B
:200E00004C4EAAA8AA5CAA5CAA5C5A56AA56AA56AA56AA4EAA6A6864AA6A6864AA5C5A56B6
:200E2000AA5C5A56AAA8AAAAAAAAAAAAAA72AAAAAA72AAAAAA72746EAA6EAAAAAA6EAAAAF8
:200E4000AA6EAAAAAA6E7274AA72AAAAAA5AAAAAAA5AAAAAAA60AA5CAA56AAAAAA56AA56A4
:200E6000AA565A5CAA5AAA52AA5CAA5AAA5CAA5CAA5C5A56AA5C5C5C5C66AAAAAA74AA6AEA
:200E8000AA6A6A666260AAAAAA60AA5EAA48AA48AA48AA42AA48AA4848484642AA625A5AC8
:200EA000AA5AAA54524EAA5CAA5CAAA8AA52AA52AA52504CAA52AA52AA52504CAA6A686432
:200EC000AA6A6864AA5C5A56AA5C5A56AAA8AAAAAAAAAAAAAA4AAA4AAA44AAA8AA3AAA3A88
:200EE000AA3EAAA8AA525252AA52AA4E4A48AA44AA44AA5AAA50AA5A5A50AA5A5A50AA5A58
:200F00005A50505AAA4CAA5A5A4CAA5A5A4CAA5A5A4C4C52AA50AA5A5A50AA5A5A50AA5A91
:200F20005A505052AA4CAA5A5A4CAA52AA50AAAAAA605E5A565AAAAAAAA8AAAAAAA8AAAA69
:200F4000AAAAAAAAAAFFA8AAAAAAAAAAAAAAA8AAAAAAAAAAAAAA46AA48AA46AA48AA46AAF0
:200F600048AA46AA48AA44AA46AA44AA46AA44AA46AA44AA48AA52AA50AA4CAAAAAAAAAA8F
:200F8000AAAAAAAAAAAAA8AAAAAA50AAAAAA52AAAAAA50AAAAAA4CAAAAAAA8AAAAAA42AAE7
:200FA000AAAA42AA42AA4CAA42AA4CAA42AA4CAA42AA42AAA8AA56AA5CAA56AA5CAA56AA15
:200FC0005CAA56AA5CAA4AAA44AA42AAA8AA42AAA8AA42AAA8AAA8AAAAAA4AAAAAAA42AA8F
:200FE000AAAAAAAAA8AA42AAAAAA42AAAAAA42AA3EAA3EAAAAAA3EAAAAAA3EAAAAAA3EAA07
:2010000044AA42AAAAAA42AA42AA42AA44AA48AA44423EAAAAAA64AAAAAA64AAAAAAA8AA26
:20102000AAAA42AA46AA60AA60AA605E5AAA60AA60AA605E5AAA60AA56AA56AA52504CAA32
:201040005AAA5CAAA8AA5CAAAAAA5CAAAAAA6AAAAAAA5CAAA8AA4AAA54AA54AAA8AA5CAA78
:20106000AAAA5CAAA8AA3AAA3AAA3CAAAAAA3AAA3AAA3CAA3AAA46AA56AA56AA46AAA8AAFE
:20108000AAAA4EAA40AA3AAA3AAA3A424CAA3AAA3AAA3A424CAA52504CAA52504CAA4442F0
:2010A0003EAAA8AAAAAA56AA50AA44AA3EAA3AAA3AAA3CAAA8AA3AAA3AAA3CAAA8AA44444A
:2010C00044AA44AA444452AA5AAA5CAAAAAA44AA5CAA56AAA8AA44AA5CAA56AAA8AA52AACA
:2010E000AAAA54AAAAAA52AAAAAA44AAA8AA3AAA3AAA3CAAAAAA3AAA3AAA3CAA3AAA46AA36
:2011000056AA56AA46AAA8AAAAAA4EAA44AA44AA44AA44423EAA48AA48AA48423EAA525011
:201120004CAA52504CAA44423EAAA8AAAAAAA8AAAAAAAAAAAAAA42AAAAAA42AAAAAA42AA53
:201140003EAA3EAAAAAA3EAAAAAA3EAAAAAA3EAA44AA42AAAAAA42AA42AA42AA44AA48AA39
:2011600044423EAAAAAA64AAAAAA64AAAAAAA8AAAAAA44AA42AA44AA5CAA56AAA8AA44AA35
:2011800044AA4EAAAAAA52AAAAAA54AAAAAA52AAAAAA48AA46AA60AA60AA60AA5AAA60AA15
:2011A0006060605E5AAA4AAA54AA54AAA8AA4EAA5CAA5CAAA8AA3AAA3AAA3A424CAA3AAAF7
:2011C0003AAA3A424CAA52504CAA52504CAA44423EAAA8AAAAAA56AA4CAA44AA3EAA3AAAC5
:2011E0003AAA3CAAA8AA3AAA3AAA3CAAA8AA444444AA44AA444452AA5AAA5CAA5AAA5A5A29
:201200005A5A5A5A5A5A5A5A5A5A5AAAA8AA5A5A5A5A5A5A5A5A5A5A5A5A5AAAA8AA5858B6
:201220005858585858585858585858AAA8AA5A5A5A5A5A5A5A5A5858585858AAA8AAA8AA14
:20124000AAAAAAAAAAAAA8AAAAAAAAAAAAAAFFA8AAAAAAAAAAAAAAA8AAAAAAAAAAAAAA5455
:20126000AAAAAA54AAAAAA54AAAAAA54AAAAAA52AAAAAA52AAAAAA52AAAAAA52AAAAAA50EA
:20128000AA56AA5AAAAAAAAAAAAAAAA8AAAAAAA8AAAAAA5EAAAAAAAAAAAAAAAAAAAAAA5A52
:2012A000AAAAAAA8AAAAAAA8AAAAAAAAAAAAAA5AAAAAAA5AAAAAAA5AAAAAAAAAAAA8AA5E30
:2012C000AAAAAA5EAAAAAA5EAAAAAAAAAAA8AA58AAAAAA50AAAAAA50AAAAAAAAAAA8AA52C8
:2012E000AAAAAA60AAAAAA68AAAAAAA8AAAAAA50AAAAAA50AAAAAAA8AAAAAA4CAAAAAA4CAE
:20130000AAAAAA4CAAAAAAA8AAAAAA50AAAAAA50AAA8AAA8AA52AA56AA52504CAAAAAA4CBF
:20132000AAAAAA64AAAAAA60AA5AAA5EAAAAAA5EAAAAAAA8AAAAAA5EAAAAAAA8AAAAAA5689
:20134000AA64AA64AA605E5AAA50AA52AAA8AA60AAAAAAA8AAAAAA52AAAAAAA8AAAAAAA81B
:20136000AAAAAAAAAAAAAA5CAAAAAA5CAAA8AA60AAAAAA62AAAAAA60AAAAAA62AAA8AA5447
:20138000AA64AA64AA54AAA8AAAAAA5CAA52AA60AA60AA605E5AAA60AA60AA605E5AAAA88D
:2013A000AAAAAAAAAAAAAA52504CAA52504CAAA8AAAAAAAAAAAAAA52AAAAAA58AAA8AA5213
:2013C000AAAAAA58AAA8AAA8AAAAAAAAAAAAAA56AA60AA52AAAAAA52AA52AA5AAAA8AA5273
:2013E000AA52AA5AAAA8AA60AAAAAA62AAAAAA60AAAAAA52AAA8AA60AAAAAA62AAAAAA6069
:20140000AAAAAA62AAA8AA54AA64AA64AA54AAA8AAAAAA5CAA52AA52AAAAAAA8AAAAAA5664
:20142000AAAAAAA8AAAAAAA8AAAAAAAAAAAAAA52504CAA52504CAAA8AAAAAAAAAAAAAA50EC
:20144000AAAAAA50AAAAAAA8AAAAAA4CAAAAAA4CAAAAAA4CAAAAAAA8AAAAAA50AAAAAA5078
:20146000AAA8AAAAAA52AA56AA52504CAAAAAA4CAAAAAA64AAAAAAA8AAAAAA44AA42AA52B6
:20148000AA52AA5AAAA8AA52AA52AA5CAAAAAA60AAAAAA62AAAAAA60AAAAAAA8AAA8AA56E8
:2014A000AAAAAAA8AAAAAA68AAAAAAA8AAAAAAA8AAAAAAAAAAAAAA5CAA6AAA6AAAA8AA604E
:2014C000AA60AA605E5AAA60AA60AA605E5AAAA8AAAAAAAAAAAAAA52504CAA52504CAAA89A
:2014E000AAAAAAAAAAAAAA52AAAAAA58AAA8AA52AAAAAA58AAA8AAA8AAAAAAAAAAAAAA565A
:20150000AA60AA52AAAAAA5EAAAAAA5EAAAAAA5EAAAAAA5EAA60AA5AAAAAAA5AAAAAAA5A97
:20152000AAAAAA5AAA60AA5EAAAAAA5EAAAAAA5EAAAAAA5EAA60AA5AAAAAAA5AAA60AA5EB5
:20154000AAAAAA56AAAAAA50AAAAAAA8AAAAAAA8AAAAAAAAAAAAAAFF34093D0C460F4F12BC
:020000040001F9
:200000000000000000000000000000000000000000000000000000000000000000000000E0
:200020000000000000000000000000000000000000000000000000000000000000000000C0
:200040000000000000000000000000000000000000000000000000000000000000000000A0
:20006000000000000000000000000000000000000000000000000000000000000000000080
:20008000000000000000000000000000000000000000000000000000000000000000000060
:2000A000000000000000000000000000000000000000000000000000000000000000000040
:2000C000000000000000000000000000000000000000000000000000000000000000000020
:2000E000000000000000000000000000000000000000000000000000000000000000000000
:200100000000000000000000000000000000000000000000000000000000000000000000DF
:200120000000000000000000000000000000000000000000000000000000000000000000BF
:2001400000000000000000000000000000000000000000000000000000000000000000009F
:2001600000000000000000000000000000000000000000000000000000000000000000007F
:2001800000000000000000000000000000000000000000000000000000000000000000005F
:2001A0000000000000000000000000000000000000001B1B1B1B1B1B1B1B1B1B1B1B1B1BC5
:2001C00000001B1B1B1B1B1B1B1B1B1B1B1B1B1B00001B1B1B1B1B1B1B1B1B1B1B1B1B1B2B
:2001E00000001B1B1B1B1B1B1B1B1B1B1B1B1B1B00001B1B1B1B1B1B1B1B1B1B1B1B1B1B0B
:200200000000000000000000000000000000000000000000000000000000000000000000DE
:200220000000000000000000000000000000000000000000000000000000000000000000BE
:2002400000000000000000000000000000000000000000000000000000000000000000009E
:2002600000000000000000000000000000000000000000000000000000000000000000007E
:2002800000000000000000000000000000000000000000000000000000000000000000005E
:2002A000000000000000000000000000000000001B1B1B1B1B1B1B1B001B1B1B1B1B1B1BA9
:2002C0001B1B1B1B1B1B1B1B1B1B1B1B1B1B1B1B1B1B1B1B1B1B1B1B1B1B1B1B1B1B1B1BBE
:2002E0001B1B1B1B1B1B1B1B001B1B1B1B1B1B1B1B1B1B1B1B1B1B1B001B1B1B1B1B1B1BD4
:200300000000000000000000000000000000000000000000000000000000000000000000DD
:200320000000000000000000000000000000000000000000000000000000000000000000BD
:2003400000000000000000000000000000000000000000000000000000000000000000009D
:2003600000000000000000000000000000000000000000000000000000000000000000007D
:2003800000000000000000000000000000000000000000000000000000000000000000005D
:2003A000000000000000000000000000000000001B1B1B1B1B1B1B1B000000000000000065
:2003C0001B1B1B1B1B1B1B1B1B1B1B00000000001B1B1B1B1B1B1B1B1B1B1B1B1B00000095
:2003E0001B1B1B1B1B1B1B1B1B1B1B1B1B1B00001B1B1B1B1B1B1B1B1B1B1B1B1B1B1B00EE
:200400000000000000000000000000000000000000000000000000000000000000000000DC
:200420000000000000000000000000000000000000000000000000000000000000000000BC
:2004400000000000000000000000000000000000000000000000000000000000000000009C
:2004600000000000000000000000000000000000000000000000000000000000000000007C
:2004800000000000000000000000000000000000000000000000000000000000000000005C
:2004A0000000000000000000000000000000000000001B1B1B1B1B1B1B1B1B1B1B1B0000F8
:2004C000001B1B1B1B1B1B1B1B1B1B1B1B1B0000001B1B1B1B1B1B1B1B1B1B1B1B1B00005E
:2004E000001B1B1B1B1B1B1B1B1B1B1B1B1B0000001B1B1B1B1B1B1B1B1B1B1B1B1B00003E
:200500000000000000000000000000000000000000000000000000000000000000000000DB
:200520000000000000000000000000000000000000000000000000000000000000000000BB
:2005400000000000000000000000000000000000000000000000000000000000000000009B
:2005600000000000000000000000000000000000000000000000000000000000000000007B
:2005800000000000000000000000000000000000000000000000000000000000000000005B
:2005A00000000000000000000000000000000000000000000000000000001B1B1B1B1B1B99
:2005C000000000000000001B1B1B1B1B1B1B1B1B00000000001B1B1B1B1B1B1B1B1B1B1BFF
:2005E0000000001B1B1B1B1B1B1B1B1B1B1B1B1B00001B1B1B1B1B1B1B1B1B1B1B1B1B1B22
:200600000000000000000000000000000000000000000000000000000000000000000000DA
:200620000000000000000000000000000000000000000000000000000000000000000000BA
:2006400000000000000000000000000000000000000000000000000000000000000000009A
:2006600000000000000000000000000000000000000000000000000000000000000000007A
:2006800000000000000000000000000000000000000000000000000000000000000000005A
:2006A000000000000000000000000000000000001B1B1B00001B1B1B1B1B1B1B1B1B1B1BC0
:2006C0001B1B1B001B1B1B1B1B1B1B1B1B1B1B1B1B1B1B001B1B1B1B1B1B1B1B1B1B1B1BF0
:2006E0001B1B1B00001B1B1B1B1B1B1B1B1B1B1B1B1B1B00001B1B1B1B1B1B1B1B1B1B1B06
:200700000000000000000000000000000000000000000000000000000000000000000000D9
:200720000000000000000000000000000000000000000000000000000000000000000000B9
:20074000000000000000000000000000000000000000000000000000000000000000000099
:20076000000000000000000000000000000000000000000000000000000000000000000079
:20078000000000000000000000000000000000000000000000000000000000000000000059
:2007A000000000000000000000000000000000001B0000001B1B1B1B0000000000000000B2
:2007C0001B0000001B1B1B1B1B1B1B1B1B0000001B00001B1B1B1B1B1B1B1B1B1B1B1B00AC
:2007E0001B00001B1B1B1B1B1B1B1B1B1B1B00001B00001B1B1B1B1B1B1B1B1B1B1B000071
:200800000000000000000000000000000000000000000000000000000000000000000000D8
:200820000000000000000000000000000000000000000000000000000000000000000000B8
:20084000000000000000000000000000000000000000000000000000000000000000000098
:20086000000000000000000000000000000000000000000000000000000000000000000078
:20088000000000000000000000000000000000000000000000000000000000000000000058
:2008A00000000000000000000000000000000000000000000000000000000000001B1B1BE7
:2008C00000000000000000000000001B1B1B1B1B000000000000000000001B1B1B1B1B1BEF
:2008E0000000000000000000001B1B1B1B1B1B1B00000000000000001B1B1B1B1B1B1B1B63
:200900000000000000000000000000000000000000000000000000000000000000000000D7
:200920000000000000000000000000000000000000000000000000000000000000000000B7
:20094000000000000000000000000000000000000000000000000000000000000000000097
:20096000000000000000000000000000000000000000000000000000000000000000000077
:20098000000000000000000000000000000000000000000000000000000000000000000057
:2009A000001B1B000000000000000000000000001B1B1B1B1B1B1B00000000000000001B29
:2009C0001B1B1B1B1B1B1B1B1B0000000000001B1B1B1B1B1B1B1B1B1B1B00000000001BE0
:2009E0001B1B1B1B1B1B1B1B1B1B1B000000001B1B1B1B1B1B1B1B1B1B1B1B1B0000001B54
:200A00000000000000000000000000000000000000000000000000000000000000000000D6
:200A20000000000000000000000000000000000000000000000000000000000000000000B6
:200A4000000000000000000000000000000000000000000000000000000000000000000096
:200A6000000000000000000000000000000000000000000000000000000000000000000076
:200A8000000000000000000000000000000000000000000000000000000000000000000056
:200AA000000000000000000000000000000000001B1B1B1B1B1B1B1B1B1B1B1B1B1B0000BC
:200AC0001B1B1B1B1B1B1B1B1B1B1B1B1B1B1B1B1B1B1B1B1B1B1B1B1B1B1B1B1B1B1B1BB6
:200AE0001B1B1B1B1B1B1B1B1B1B1B1B1B1B1B1B1B1B1B1B1B1B1B1B1B1B1B1B1B1B1B1B96
:200B00000000000000000000000000000000000000000000000000000000000000000000D5
:200B20000000000000000000000000000000000000000000000000000000000000000000B5
:200B4000000000000000000000000000000000000000000000000000000000000000000095
:200B6000000000000000000000000000000000000000000000000000000000000000000075
:200B8000000000000000000000000000000000000000000000000000000000000000000055
:200BA0000000000000000000000000000000000000000000000000000000000000001B1BFF
:200BC0001B000000000000000000000000001B1B1B1B1B00000000000000000000001B1B3D
:200BE0001B1B1B1B000000000000000000001B1B1B1B1B1B1B0000000000000000001B1B96
:200C00000000000000000000000000000000000000000000000000000000000000000000D4
:200C20000000000000000000000000000000000000000000000000000000000000000000B4
:200C4000000000000000000000000000000000000000000000000000000000000000000094
:200C6000000000000000000000000000000000000000000000000000000000000000000074
:200C8000000000000000000000000000000000000000000000000000000000000000000054
:200CA000000000000000000000000000000000001B1B1B1B1B1B1B1B1B1B1B1B1B1B1B1B84
:200CC0001B1B1B1B1B1B1B1B1B1B1B1B1B1B1B1B1B1B1B1B1B1B1B1B1B1B1B1B1B1B1B1BB4
:200CE0001B1B1B1B1B1B1B1B1B1B1B1B1B1B1B1B1B1B1B1B1B1B1B1B1B1B1B1B1B1B1B1B94
:200D00000000000000000000000000000000000000000000000000000000000000000000D3
:200D20000000000000000000000000000000000000000000000000000000000000000000B3
:200D4000000000000000000000000000000000000000000000000000000000000000000093
:200D6000000000000000000000000000000000000000000000000000000000000000000073
:200D8000000000000000000000000000000000000000000000000000000000000000000053
:200DA000000000000000000000000000000000001B1B1B1B000000000000000000001B1B91
:200DC0001B1B1B1B1B1B1B1B0000000000001B1B1B1B1B1B1B1B1B1B1B1B000000001B1BC1
:200DE0001B1B1B1B1B1B1B1B1B1B1B0000001B1B1B1B1B1B1B1B1B1B1B1B1B1B00001B1B1A
:200E00000000000000000000000000000000000000000000000000000000000000000000D2
:200E20000000000000000000000000000000000000000000000000000000000000000000B2
:200E4000000000000000000000000000000000000000000000000000000000000000000092
:200E6000000000000000000000000000000000000000000000000000000000000000000072
:200E8000000000000000000000000000000000000000000000000000000000000000000052
:200EA000000000000000000000000000000000001B0000000000001B1B1B1B1B1B1B1B1B24
:200EC0001B00000000001B1B1B1B1B1B1B1B1B1B1B00000000001B1B1B1B1B1B1B1B1B1BC0
:200EE0001B00000000001B1B1B1B1B1B1B1B1B1B1B00000000001B1B1B1B1B1B1B1B1B1BA0
:200F00000000000000000000000000000000000000000000000000000000000000000000D1
:200F20000000000000000000000000000000000000000000000000000000000000000000B1
:200F4000000000000000000000000000000000000000000000000000000000000000000091
:200F6000000000000000000000000000000000000000000000000000000000000000000071
:200F8000000000000000000000000000000000000000000000000000000000000000000051
:200FA000000000000000000000000000000000001B1B0000000000001B1B1B1B1B1B1B1B23
:200FC0001B1B00000000001B1B1B1B1B1B1B1B1B1B1B00000000001B1B1B1B1B1B1B1B1BBF
:200FE0001B1B1B00000000001B1B1B1B1B1B1B1B1B1B1B00000000001B1B1B1B1B1B1B1B9F
:201000000000000000000000000000000000000000000000000000000000000000000000D0
:201020000000000000000000000000000000000000000000000000000000000000000000B0
:20104000000000000000000000000000000000000000000000000000000000000000000090
:20106000000000000000000000000000000000000000000000000000000000000000000070
:20108000000000000000000000000000000000000000000000000000000000000000000050
:2010A000000000000000000000000000000000001B1B1B1B1B1B1B1B1B1B1B1B1B1B0000B6
:2010C0001B1B1B1B1B1B1B1B1B1B1B1B1B1B00001B1B1B1B1B1B1B1B1B1B1B1B1B1B00001C
:2010E0001B1B1B1B1B1B1B1B1B1B1B1B1B1B00001B1B1B1B1B1B1B1B1B1B1B1B1B1B0000FC
:2011000000001B1B1B1B1B1B1B1B1B1B1B1B1B1B00001B1B1B1B1B1B1B1B1B1B1B1B1B1BDB
:2011200000001B1B1B1B1B1B1B1B1B1B1B1B1B1B00001B1B1B1B1B1B1B1B1B1B1B1B1B1BBB
:2011400000001B1B1B1B1B1B1B1B1B1B1B1B1B1B00001B1B1B1B1B1B1B1B1B1B1B1B1B1B9B
:2011600000001B1B1B1B1B1B1B1B1B1B1B1B1B1B00000000000000001B1B1B1B1B1B1B1B1D
:2011800000000000000000001B1B1B1B1B1B1B1B00000000000000001B1B1B1B1B1B1B1B9F
:2011A00000000000000000001B1B1B1B1B1B1B1B00000000000000001B1B1B1B1B1B1B1B7F
:2011C00000000000000000001B1B1B1B1B1B1B1B00000000000000001B1B1B1B1B1B1B1B5F
:2011E00000000000000000001B1B1B1B1B1B1B1B00000000000000001B1B1B1B1B1B1B1B3F
:201200001B1B1B1B1B1B1B1B001B1B1B1B1B1B1B1B1B1B1B1B1B1B1B001B1B1B1B1B1B1BA4
:201220001B1B1B1B1B1B1B1B001B1B1B1B1B1B1B1B1B1B1B1B1B1B1B001B1B1B1B1B1B1B84
:201240001B1B1B1B1B1B1B1B001B1B1B1B1B1B1B1B1B1B1B1B1B1B1B001B1B1B1B1B1B1B64
:201260001B1B1B1B1B1B1B1B001B1B1B1B1B1B1B1B1B1B0000000000001B1B1B1B1B1B1BCB
:201280001B1B1B0000000000001B1B1B1B1B1B1B1B1B1B0000000000001B1B1B1B1B1B1B32
:2012A0001B1B1B0000000000001B1B1B1B1B1B1B1B1B000000000000001B1B1B1B1B1B1B2D
:2012C0001B1B000000000000001B1B1B1B1B1B1B1B1B00000000000000001B1B1B1B1B1B43
:2012E0001B1B00000000000000001B1B1B1B1B1B1B1B00000000000000001B1B1B1B1B1B3E
:201300001B1B1B1B1B1B1B1B1B1B1B1B1B1B1B1B1B1B1B1B1B1B1B1B1B1B1B1B1B1B1B1B6D
:201320001B1B1B1B1B1B1B1B1B1B1B1B1B1B1B1B1B1B1B1B1B1B1B1B1B1B1B1B1B1B1B1B4D
:201340001B1B1B1B1B1B1B1B1B1B1B1B1B1B1B1B1B1B1B1B1B1B1B1B1B1B1B1B1B1B1B1B2D
:201360001B1B1B1B1B1B1B1B1B1B1B1B1B1B1B1B1B1B1B1B1B001B1B1B1B1B1B1B1B1B1B28
:201380001B1B1B1B1B0000001B1B1B1B1B1B1B1B1B1B1B1B1B0000001B1B1B1B1B1B1B1B8F
:2013A0001B1B1B1B1B0000001B1B1B1B1B1B1B1B1B1B1B1B1B00001B1B1B1B1B1B1B1B1B54
:2013C0001B1B1B1B1B1B1B1B1B1B1B1B1B1B1B001B1B1B1B1B1B1B1B1B1B1B1B1B1B0000FE
:2013E0001B1B1B1B1B1B1B1B1B1B1B1B1B0000001B1B1B1B1B1B1B1B1B1B1B1B000000004A
:20140000001B1B1B1B1B1B1B1B1B1B1B1B1B000000001B1B1B1B1B1B1B1B1B1B1B1B000029
:201420001B001B1B1B1B1B1B1B1B1B1B1B1B00001B001B1B1B1B1B1B1B1B1B1B1B1B0000EE
:201440001B001B1B1B1B1B1B1B1B1B1B1B1B00001B001B1B1B1B1B1B1B1B1B1B1B1B001BB3
:201460001B001B1B1B1B1B1B1B1B1B1B1B1B001B1B001B1B1B1B1B1B1B1B1B1B1B1B001B78
:201480001B001B1B1B1B1B1B1B1B1B1B1B1B001B1B001B1B1B1B1B1B1B1B1B1B1B1B001B58
:2014A00000001B1B1B1B1B1B1B1B1B1B1B1B001B00001B1B1B1B1B1B1B1B1B1B1B1B001B6E
:2014C00000001B1B1B1B1B1B1B1B1B1B1B1B001B00001B1B1B1B1B1B1B1B1B1B1B1B001B4E
:2014E00000001B1B1B1B1B1B1B1B1B1B1B1B000000001B1B1B1B1B1B1B1B1B1B1B1B000064
:2015000000001B1B1B1B1B1B1B1B1B1B1B1B1B1B001B1B1B1B1B1B1B1B1B1B1B1B1B1B1BBC
:201520001B1B1B1B1B1B1B1B1B1B1B1B1B1B1B1B1B1B1B1B1B1B1B1B1B1B1B1B1B1B1B1B4B
:201540001B1B1B1B1B1B1B1B1B1B1B1B1B1B1B1B1B1B1B1B1B1B1B1B1B1B1B1B1B1B1B1B2B
:201560001B1B1B1B1B1B1B1B1B1B1B1B1B1B1B1B1B1B1B1B1B1B1B1B1B1B1B1B1B1B000041
:201580001B1B1B1B1B1B1B1B1B1B1B1B1B0000001B1B1B1B1B1B1B1B1B1B1B1B00000000A8
:2015A0001B1B1B1B1B1B1B1B1B1B1B00000000001B1B1B1B1B1B1B1B1B1B1B0000000000D9
:2015C0001B1B1B1B1B1B1B1B1B1B1B00000000001B1B1B1B1B1B1B1B1B1B1B0000000000B9
:2015E0001B1B1B1B1B1B1B1B1B1B1B00000000001B1B1B1B1B1B1B1B1B1B1B1B000000007E
:201600001B1B1B00001B1B1B1B1B1B1B1B1B1B1B1B1B1B00001B1B1B1B1B1B1B1B1B1B1BD6
:201620001B1B1B1B001B1B1B1B1B1B1B1B1B1B1B1B1B1B1B001B1B1B1B1B1B1B1B1B1B1B80
:201640001B1B1B1B001B1B1B1B1B1B1B1B1B1B1B1B1B1B1B001B1B1B1B1B1B1B1B1B1B1B60
:201660001B1B1B1B001B1B1B1B1B1B1B1B1B1B1B00000000001B1B1B1B1B1B1B1B1B1B1BAC
:2016800000000000001B1B1B1B1B1B1B1B1B1B1B00000000001B1B1B1B1B1B1B1B1B1B1BF8
:2016A00000000000001B1B1B1B1B1B1B1B1B1B1B00000000001B1B1B1B1B1B1B1B1B1B1BD8
:2016C00000000000001B1B1B1B1B1B1B1B1B1B1B00000000001B1B1B1B1B1B1B1B1B1B1BB8
:2016E00000000000001B1B1B1B1B1B1B1B1B1B1B00000000001B1B1B1B1B1B1B1B1B1B1B98
:201700001B001B1B1B1B1B1B1B1B1B1B1B0000001B001B1B1B1B1B1B1B1B1B1B1B00000041
:201720001B001B1B1B1B1B1B1B1B1B1B000000001B1B1B1B1B1B1B1B1B1B1B1B000000003C
:201740001B1B1B1B1B1B1B1B1B1B1B00000000001B1B1B1B1B1B1B1B1B1B1B000000000037
:201760001B1B1B1B1B1B1B1B1B1B0000000000001B1B1B1B1B1B1B1B1B1B0000000000004D
:201780001B1B1B1B1B1B1B1B1B000000000000001B1B1B1B1B1B1B1B1B0000000000000063
:2017A0001B1B1B1B1B1B1B1B00000000000000001B1B1B1B1B1B1B00000000000000000094
:2017C0001B1B1B1B1B1B1B0000000000000000001B1B1B1B1B1B1B0000000000000000008F
:2017E0001B1B1B1B1B1B1B1B00000000000000001B1B1B1B1B1B1B1B1B000000000000001E
:2018000000000000000000001B1B1B1B1B1B1B1B000000000000001B1B1B1B1B1B1B1B1BFD
:20182000000000000000001B1B1B1B1B1B1B1B1B0000000000001B1B1B1B1B1B1B1B1B1BA7
:201840000000000000001B1B1B1B1B1B1B1B1B1B0000000000001B1B1B1B1B1B1B1B1B1B6C
:201860000000000000001B1B1B1B1B1B1B1B1B1B0000000000001B1B1B1B1B1B1B1B1B1B4C
:201880000000000000001B1B1B1B1B1B1B1B1B1B0000000000001B1B1B1B1B1B1B1B1B1B2C
:2018A0000000000000001B1B1B1B1B1B1B1B1B000000000000001B1B1B1B1B1B1B1B1B0042
:2018C0000000000000001B1B1B1B1B1B1B1B1B000000000000001B1B1B1B1B1B1B1B1B1B07
:2018E0000000000000001B1B1B1B1B1B1B1B1B1B000000000000001B1B1B1B1B1B1B1B1BE7
:201900001B1B1B1B1B1B1B1B1B1B1B1B1B00001B1B1B1B1B1B1B1B1B1B1B1B1B1B00001BD3
:201920001B1B1B1B1B1B1B1B1B1B1B1B1B00001B1B1B1B1B1B1B1B1B1B1B1B1B1B1B001B98
:201940001B1B1B1B1B1B1B1B1B1B1B1B1B1B001B1B1B1B1B1B1B1B1B1B1B1B1B1B1B001B5D
:201960001B1B1B1B1B1B1B1B1B1B1B1B1B1B001B1B1B1B1B1B1B1B1B1B1B1B1B1B1B001B3D
:20198000000000001B1B1B1B1B1B1B1B1B1B001B00000000001B1B1B1B1B1B1B1B1B001B10
:2019A00000000000001B1B1B1B1B1B1B1B1B001B00000000001B1B1B1B1B1B1B1B1B000026
:2019C00000000000001B1B1B1B1B1B1B1B1B000000000000001B1B1B1B1B1B1B1B1B000021
:2019E000000000001B1B1B1B1B1B1B1B1B1B0000000000001B1B1B1B1B1B1B1B1B000000E6
:201A00001B1B1B1B1B1B1B1B1B1B1B1B1B1B1B1B1B1B1B1B1B1B1B1B1B1B1B1B1B1B1B1B66
:201A20001B1B1B1B1B1B1B1B1B1B1B1B1B1B1B1B1B1B1B1B1B1B1B1B1B1B1B1B1B1B1B1B46
:201A40001B1B1B1B1B1B1B1B1B1B1B1B1B1B1B1B1B1B1B1B1B1B1B1B1B1B1B1B1B1B1B1B26
:201A60001B1B1B1B1B1B1B1B1B1B1B1B1B1B1B1B1B1B1B1B1B1B1B1B1B1B1B001B1B1B1B21
:201A80001B1B1B1B1B1B1B1B1B1B1B0000001B1B1B1B1B1B1B1B1B1B1B1B1B0000001B1B88
:201AA0001B1B1B1B1B1B1B1B1B1B1B0000001B1B1B1B1B1B1B1B1B1B1B1B1B00001B1B1B4D
:201AC0001B1B1B1B1B1B1B1B1B1B1B1B1B1B1B1B1B1B1B1B1B1B1B1B1B1B1B1B1B1B1B1BA6
:201AE0001B1B1B1B1B1B1B1B1B1B1B1B1B1B1B1B1B1B1B1B1B1B1B1B1B1B1B1B1B1B1B1B86
:201B00001B1B1B1B1B1B00000000000000001B1B1B1B1B1B1B1B00000000000000001B1B15
:201B20001B1B1B1B1B1B1B000000000000001B1B1B1B1B1B1B1B1B000000000000001B1BBF
:201B40001B1B1B1B1B1B1B000000000000001B1B1B1B1B1B1B1B1B00000000000000001BBA
:201B60001B1B1B1B1B1B1B00000000000000001B1B1B1B1B1B1B1B000000000000000000D0
:201B80001B1B1B1B1B1B1B0000000000000000001B1B1B1B1B1B1B000000000000000000CB
:201BA0001B1B1B1B1B1B000000000000000000001B1B1B1B1B1B00000000000000000000E1
:201BC0001B1B1B1B1B00000000000000000000001B1B1B1B00000000000000000000000012
:201BE0001B1B1B000000000000000000000000001B1B00000000000000000000000000005E
:201C00001B1B1B1B1B1B1B1B1B1B1B1B1B1B1B1B1B1B1B1B1B1B1B1B1B1B1B1B1B1B1B1B64
:201C20001B1B1B1B1B1B1B1B1B1B1B1B1B1B1B1B1B1B1B1B1B1B1B1B1B1B1B1B1B1B1B1B44
:201C40001B1B1B1B1B1B1B1B1B1B1B1B1B1B1B1B1B1B1B1B1B1B1B1B1B1B1B1B1B1B1B1B24
:201C60001B1B1B1B1B1B1B1B1B1B1B1B1B1B1B1B000000001B1B1B1B1B1B1B1B1B1B1B008B
:201C8000000000001B1B1B1B1B1B1B1B1B1B1B00000000001B1B1B1B1B1B1B1B1B1B1B00F2
:201CA000000000001B1B1B1B1B1B1B1B1B1B1B00000000001B1B1B1B1B1B1B1B1B1B1B00D2
:201CC000000000001B1B1B1B1B1B1B1B1B1B1B00000000001B1B1B1B1B1B1B1B1B1B1B00B2
:201CE000000000001B1B1B1B1B1B1B1B1B1B1B00000000001B1B1B1B1B1B1B1B1B1B1B0092
:201D00001B1B1B1B1B1B1B1B1B1B1B1B1B1B1B1B1B1B1B1B1B1B1B1B1B1B1B1B1B1B1B1B63
:201D20001B1B1B1B1B1B1B1B1B1B1B1B1B1B1B1B1B1B1B1B1B1B1B1B1B1B1B1B1B1B1B1B43
:201D40001B1B1B1B1B1B1B1B1B1B1B1B1B1B1B1B1B1B1B1B1B001B1B1B1B1B1B1B1B1B1B3E
:201D60001B1B1B1B00001B1B1B1B1B1B1B1B1B1B0000000000001B1B1B1B1B1B1B1B1B1BDB
:201D80000000000000001B1B1B1B1B1B1B1B1B1B0000000000001B1B1B1B1B1B1B1B1B1B27
:201DA0000000000000001B1B1B1B1B1B1B1B1B1B0000000000001B1B1B1B1B1B1B1B1B1B07
:201DC0000000000000001B1B1B1B1B1B1B1B1B1B0000000000001B1B1B1B1B1B1B1B1B1BE7
:201DE0000000000000001B1B1B1B1B1B1B1B1B1B0000000000001B1B1B1B1B1B1B1B1B1BC7
:201E00001B1B1B1B1B1B1B1B1B1B1B1B00001B1B1B1B1B1B1B1B1B1B1B1B1B1B1B001B1BB3
:201E20001B1B1B1B1B1B1B1B1B1B1B1B1B001B1B1B1B1B1B1B1B1B1B1B1B1B1B1B001B1B78
:201E40001B1B1B1B1B1B1B1B1B1B1B1B1B001B1B1B1B1B1B1B1B1B1B1B1B1B1B1B1B1B1B3D
:201E60001B1B1B1B1B1B1B1B1B1B1B1B1B1B1B1B1B1B1B1B1B1B1B1B1B1B1B1B1B001B1B1D
:201E80001B1B00001B1B1B1B1B1B1B1B1B001B1B1B1B0000001B1B1B1B1B1B1B1B001B1B9F
:201EA0001B1B00001B1B1B1B1B1B1B1B1B001B1B1B1B00001B1B1B1B1B1B1B1B00001B1B7F
:201EC0001B1B1B1B1B1B1B1B1B1B1B0000001B1B1B1B1B1B1B1B1B1B1B1B00000000001B7A
:201EE0001B1B1B1B1B1B1B1B1B0000000000001B1B1B1B1B1B1B1B1B000000000000001BE1
:201F00001B1B1B1B1B1B1B1B1B1B1B1B1B1B1B1B1B1B1B1B1B1B1B1B1B1B1B1B1B1B1B1B61
:201F20001B1B1B1B1B1B1B1B1B1B1B1B1B1B1B1B1B1B1B1B1B1B1B1B1B1B1B1B1B1B1B1B41
:201F40001B1B1B1B1B1B1B1B1B1B1B1B1B1B1B1B1B1B1B1B1B1B1B1B1B1B1B1B1B1B1B1B21
:201F60001B1B1B1B1B1B1B1B1B1B1B1B1B1B1B1B1B1B1B1B1B1B1B1B1B1B000000000000A3
:201F80001B1B1B1B1B1B1B1B1B1B0000000000001B1B1B1B1B1B1B1B1B1B1B1B1B1B1B1B83
:201FA0001B1B1B1B1B1B1B1B1B1B1B1B1B1B1B1B1B1B1B1B1B1B1B1B1B1B1B1B1B1B1B1BC1
:201FC0001B1B1B1B1B1B1B1B1B1B1B1B1B1B1B1B1B1B1B1B1B1B1B1B1B1B1B1B1B1B1B1BA1
:201FE0001B1B1B1B1B1B1B1B1B1B1B1B1B1B1B001B1B1B1B1B1B1B1B1B1B0000000000003E
:202000001B00000000001B1B1B1B1B1B1B1B1B1B1B000000001B1B1B1B1B1B1B1B1B1B1B53
:202020001B000000001B1B1B1B1B1B1B1B1B1B1B1B000000001B1B1B1B1B1B1B1B1B1B1B18
:202040001B000000001B1B1B1B1B1B1B1B1B1B1B00000000001B1B1B1B1B1B1B1B1B1B1B13
:2020600000000000001B1B1B1B1B1B1B1B1B1B1B000000001B1B1B1B1B1B1B1B1B1B1B1BF3
:20208000000000001B1B1B1B1B1B1B1B1B1B1B1B000000001B1B1B1B1B1B1B1B1B1B1B1BB8
:2020A000000000001B1B1B1B1B1B1B1B1B1B1B1B0000001B1B1B1B1B1B1B1B1B1B1B1B1B7D
:2020C0000000001B1B1B1B1B1B1B1B1B1B1B1B1B0000001B1B1B1B1B1B1B001B1B1B1B1B5D
:2020E0000000001B1B1B1B1B1B00001B1B1B1B1B00001B1B1B1B1B1B1B00001B1B1B1B1B73
:202100001B1B1B00000000001B1B1B1B1B1B1B1B1B1B1B00000000001B1B1B1B1B1B1B1B6D
:202120001B1B1B00000000001B1B1B1B1B1B1B1B1B1B1B1B000000001B1B1B1B1B1B1B1B32
:202140001B1B1B1B000000001B1B1B1B1B1B1B1B1B1B1B1B000000001B1B1B1B1B1B1B1BF7
:202160001B1B1B1B000000001B1B1B1B1B1B1B1B1B1B1B1B1B00000000000000001B1B1B43
:202180001B1B1B1B1B00000000000000001B1B1B1B1B1B1B1B00000000000000001B1B1B8F
:2021A0001B1B1B1B1B00000000000000001B1B1B1B1B1B1B1B0000000000000000001B1B8A
:2021C0001B1B1B1B1B1B00000000000000001B1B1B1B1B1B1B1B00000000000000001B1B4F
:2021E0001B1B1B1B1B1B00000000000000001B1B1B1B1B1B1B1B00000000000000001B1B2F
:202200001B1B1B1B1B1B1B1B1B1B1B1B1B1B00001B1B1B1B1B1B1B1B1B1B1B1B1B1B0000CA
:202220001B1B1B1B1B1B1B1B1B1B1B1B1B1B00001B1B1B1B1B1B1B1B1B1B1B1B1B1B0000AA
:202240001B1B1B1B1B1B1B1B1B1B1B1B1B1B00001B1B1B1B1B1B1B1B1B1B1B1B1B1B00008A
:202260001B1B1B1B1B1B1B1B1B1B1B1B1B1B00001B1B1B1B1B1B1B1B00000000000000000C
:202280001B1B1B1B1B1B1B1B00000000000000001B1B1B1B1B1B1B1B00000000000000008E
:2022A0001B1B1B1B1B1B1B1B00000000000000001B1B1B1B1B1B1B1B00000000000000006E
:2022C0001B1B1B1B1B1B1B1B00000000000000001B1B1B1B1B1B1B1B00000000000000004E
:2022E0001B1B1B1B1B1B1B1B00000000000000001B1B1B1B1B1B1B1B00000000000000002E
:2023000000000000000000001B1B1B1B1B1B1B1B00000000000000001B1B1B1B1B1B1B1B0D
:2023200000000000000000001B1B1B1B1B1B1B1B00000000000000001B1B1B1B1B1B1B1BED
:2023400000000000000000001B1B1B1B1B1B1B1B00000000000000001B1B1B1B1B1B1B1BCD
:2023600000000000000000001B1B1B1B1B1B1B1B0000000000000000000000000000000085
:2023800000000000000000000000000000000000000000000000000000000000000000003D
:2023A00000000000000000000000000000000000000000000000000000000000000000001D
:2023C0000000000000000000000000000000000000000000000000000000000000000000FD
:2023E0000000000000000000000000000000000000000000000000000000000000000000DD
:202400001B1B00000000000000001B1B1B1B1B1B1B1B00000000000000001B1B1B1B1B1B0C
:202420001B1B00000000000000001B1B1B1B1B1B1B1B00000000000000001B1B1B1B1B1BEC
:202440001B1B00000000000000001B1B1B1B1B1B1B1B00000000000000001B1B1B1B1B1BCC
:202460001B1B00000000000000001B1B1B1B1B1B0000000000000000000000000000000084
:2024800000000000000000000000000000000000000000000000000000000000000000003C
:2024A00000000000000000000000000000000000000000000000000000000000000000001C
:2024C0000000000000000000000000000000000000000000000000000000000000000000FC
:2024E0000000000000000000000000000000000000000000000000000000000000000000DC
:202500001B1B1B1B1B1B1B1B1B1B1B1B1B0000001B1B1B1B1B1B1B1B1B1B1B1B1B1B0000E2
:202520001B1B1B1B1B1B1B1B1B1B1B1B1B1B1B001B1B1B1B1B1B1B1B1B1B1B1B1B1B1B1B56
:202540001B1B1B1B1B001B1B1B1B1B1B1B1B1B1B1B1B1B1B1B001B1B1B1B1B1B1B1B1B1B51
:202560001B1B1B1B1B00001B1B1B1B1B1B1B1B0000000000000000001B1B1B1B0000000090
:2025800000000000000000001B1B0000000000000000000000000000000000000000000005
:2025A00000000000000000000000000000000000000000000000000000000000000000001B
:2025C0000000000000000000000000000000000000000000000000000000000000000000FB
:2025E0000000000000000000000000000000000000000000000000000000000000000000DB
:2026000000001B1B1B1B1B1B1B1B1B1B1B1B000000001B1B1B1B1B1B1B1B1B1B1B0000004D
:2026200000001B1B1B1B1B1B1B1B1B1B1B00000000001B1B1B1B1B1B1B1B1B1B1B00000048
:202640001B001B1B1B1B1B1B1B1B1B1B1B0000001B001B1B1B1B1B1B1B1B1B1B1B000000F2
:2026600000001B1B1B1B1B1B1B1B1B1B1B0000000000000000000000000000000000000031
:2026800000000000000000000000000000000000000000000000000000000000000000003A
:2026A00000000000000000000000000000000000000000000000000000000000000000001A
:2026C0000000000000000000000000000000000000000000000000000000000000000000FA
:2026E0000000000000000000000000000000000000000000000000000000000000000000DA
:202700001B1B1B1B1B1B1B1B1B1B1B1B00000000001B1B1B1B1B1B1B1B1B1B1B1B1B000016
:2027200000001B1B1B1B1B1B1B1B1B1B1B1B1B1B0000001B1B1B1B1B1B1B1B1B1B1B1B1BC0
:202740000000001B1B1B1B1B1B1B1B1B1B1B1B1B00000000001B1B1B1B1B1B1B1B1B1B1BF1
:202760000000000000001B1B1B1B1B1B1B1B1B1B0000000000000000001B1B1B1B1B1B1B8E
:20278000000000000000000000000000000000000000000000000000000000000000000039
:2027A000000000000000000000000000000000000000000000000000000000000000000019
:2027C0000000000000000000000000000000000000000000000000000000000000000000F9
:2027E0000000000000000000000000000000000000000000000000000000000000000000D9
:2028000000000000001B1B1B1B1B1B1B1B1B1B1B00001B1B001B1B1B1B1B1B1B1B1B1B1B30
:202820001B1B1B1B001B1B1B1B1B1B1B1B1B1B1B1B1B1B0000001B1B1B1B1B1B1B1B1B1BA4
:202840001B1B1B0000001B1B1B1B1B1B1B1B1B1B1B1B1B0000001B1B1B1B1B1B1B1B1B1BBA
:202860001B1B1B0000001B1B1B1B1B1B1B1B1B1B1B1B0000000000000000000000000000C3
:20288000000000000000000000000000000000000000000000000000000000000000000038
:2028A000000000000000000000000000000000000000000000000000000000000000000018
:2028C0000000000000000000000000000000000000000000000000000000000000000000F8
:2028E0000000000000000000000000000000000000000000000000000000000000000000D8
:202900001B1B1B1B1B1B1B1B1B000000000000001B1B1B1B1B1B1B1B1B1B000000000000B6
:202920001B1B1B1B1B1B1B1B1B1B1B1B00000000001B1B1B1B1B1B1B1B1B1B1B1B0000000F
:2029400000001B1B1B1B1B1B1B1B1B1B1B00000000001B1B1B1B1B1B1B1B1B1B1B00000025
:202960000000001B1B1B1B1B1B1B000000000000000000001B1B1B1B00000000000000002E
:20298000000000001B1B000000000000000000000000000000000000000000000000000001
:2029A000000000000000000000000000000000000000000000000000000000000000000017
:2029C0000000000000000000000000000000000000000000000000000000000000000000F7
:2029E0000000000000000000000000000000000000000000000000000000000000000000D7
:202A0000000000000000001B1B1B1B1B1B1B1B1B00000000000000001B1B1B1B1B1B1B1BEB
:202A200000000000000000001B1B1B1B1B1B1B1B0000000000000000001B1B1B1B1B1B1B01
:202A4000000000000000000000001B1B1B1B1B1B00000000000000000000001B1B1B1B1B4D
:202A60000000000000000000000000001B1B1B1B00000000000000000000000000001B1BB4
:202A8000000000000000000000000000000000000000000000000000000000000000000036
:202AA000000000000000000000000000000000000000000000000000000000000000000016
:202AC0000000000000000000000000000000000000000000000000000000000000000000F6
:202AE0000000000000000000000000000000000000000000000000000000000000000000D6
:202B00001B00001B1B1B1B1B1B1B1B1B1B0000001B1B1B1B1B1B1B1B1B1B1B1B0000000048
:202B20001B1B1B1B1B1B1B1B1B1B1B1B000000001B1B1B1B1B1B1B1B1B1B1B000000000028
:202B40001B1B1B1B1B1B1B1B1B1B0000000000001B1B1B1B1B1B1B1B1B0000000000000074
:202B60001B1B1B1B1B1B1B1B00000000000000001B1B1B1B1B1B00000000000000000000DB
:202B8000000000000000000000000000000000000000000000000000000000000000000035
:202BA000000000000000000000000000000000000000000000000000000000000000000015
:202BC0000000000000000000000000000000000000000000000000000000000000000000F5
:202BE0000000000000000000000000000000000000000000000000000000000000000000D5
:202C00001B1B1B1B1B1B1B1B1B1B1B1B1B1B1B1B1B1B1B1B1B1B1B1B1B1B1B1B1B1B1B1B54
:202C20001B1B1B1B1B1B1B1B1B1B1B1B1B1B1B1B1B1B1B1B1B1B1B1B1B1B1B1B1B1B1B1B34
:202C40001B1B1B1B1B1B1B1B1B1B1B001B1B1B1B1B1B1B1B1B1B1B1B1B1B1B00001B1B1B65
:202C60001B1B1B1B1B1B1B1B1B1B1B00001B1B1B00000000000000000000000000001B1BA4
:202C80000000000000000000000000000000001B0000000000000000000000000000000019
:202CA000000000000000000000000000000000000000000000000000000000000000000014
:202CC0000000000000000000000000000000000000000000000000000000000000000000F4
:202CE0000000000000000000000000000000000000000000000000000000000000000000D4
:202D00001B1B1B000000000000000000000000001B1B1B1B000000000000000000000000F6
:202D20001B1B1B1B1B00000000000000000000001B1B1B1B1B1B000000000000000000006A
:202D40001B1B1B1B1B1B1B0000000000000000001B1B1B1B1B1B1B000000000000000000F9
:202D60001B1B1B1B1B00000000000000000000001B1B1B000000000000000000000000007B
:202D8000000000000000000000000000000000000000000000000000000000000000000033
:202DA000000000000000000000000000000000000000000000000000000000000000000013
:202DC0000000000000000000000000000000000000000000000000000000000000000000F3
:202DE0000000000000000000000000000000000000000000000000000000000000000000D3
:202E0000000000001B1B1B1B1B1B1B1B1B1B1B0000000000001B1B1B1B1B1B1B1B1B1B007B
:202E200000000000001B1B1B1B1B1B1B1B1B000000000000001B1B1B1B1B1B1B1B1B0000AC
:202E400000000000001B1B1B1B1B1B1B1B1B000000000000001B1B1B1B1B1B1B1B1B00008C
:202E600000000000001B1B1B1B1B1B1B1B1B0000000000000000000000000000000000005F
:202E8000000000000000000000000000000000000000000000000000000000000000000032
:202EA000000000000000000000000000000000000000000000000000000000000000000012
:202EC0000000000000000000000000000000000000000000000000000000000000000000F2
:202EE0000000000000000000000000000000000000000000000000000000000000000000D2
:202F00000000000000001B1B1B1B1B1B1B1B1B1B0000000000001B1B1B1B1B1B1B1B1B1B95
:202F20000000000000001B1B1B1B1B1B1B1B1B1B0000000000001B1B1B1B1B1B1B1B1B1B75
:202F40000000000000001B1B1B1B1B1B1B1B1B1B0000000000001B1B1B1B1B1B1B1B1B1B55
:202F60000000000000001B1B1B1B1B1B1B1B1B1B0000000000000000000000000000000043
:202F8000000000000000000000000000000000000000000000000000000000000000000031
:202FA000000000000000000000000000000000000000000000000000000000000000000011
:202FC0000000000000000000000000000000000000000000000000000000000000000000F1
:202FE0000000000000000000000000000000000000000000000000000000000000000000D1
:203000001B1B1B1B1B1B1B1B1B0000000000001B1B1B1B1B1B1B1B1B1B1B00000000001B79
:203020001B1B1B1B1B1B1B1B1B1B1B000000001B1B001B1B1B1B1B1B1B1B1B1B0000001B08
:203040001B001B1B1B1B1B1B1B1B1B1B1B00001B1B00001B1B1B1B1B1B1B1B1B1B00001BCD
:203060001B0000001B1B1B1B1B1B1B000000001B000000001B1B1B1B1B00000000000000D6
:2030800000000000001B1B00000000000000000000000000000000000000000000000000FA
:2030A000000000000000000000000000000000000000000000000000000000000000000010
:2030C0000000000000000000000000000000000000000000000000000000000000000000F0
:2030E0000000000000000000000000000000000000000000000000000000000000000000D0
:203100001B1B1B1B1B1B1B1B1B1B0000000000001B1B1B1B1B1B1B1B1B1B000000001B1B5D
:203120001B1B1B1B1B1B1B1B1B1B1B1B1B1B1B1B1B1B1B1B1B1B1B1B1B1B1B1B1B1B1B1B2F
:203140001B1B1B1B1B1B1B1B1B1B1B1B1B1B1B1B1B1B1B1B1B1B1B1B1B1B1B1B1B1B1B1B0F
:203160001B1B1B1B1B1B1B1B1B1B1B1B1B1B1B1B000000000000000000000000000000009F
:2031800000000000000000000000000000000000000000000000000000000000000000002F
:2031A00000000000000000000000000000000000000000000000000000000000000000000F
:2031C0000000000000000000000000000000000000000000000000000000000000000000EF
:2031E0000000000000000000000000000000000000000000000000000000000000000000CF
:2032000000001B1B1B1B1B1B1B0000001B1B1B1B1B001B1B1B1B1B1B1B1B1B1B1B1B1B1BF0
:203220001B001B1B1B1B1B1B1B1B1B1B1B1B1B1B001B1B1B1B1B1B1B1B1B1B1B1B1B1B1B64
:20324000001B1B1B1B1B1B1B1B1B1B1B1B1B1B1B001B1B1B1B1B1B001B1B1B1B1B1B1B1B5F
:20326000001B1B1B1B1B1B001B1B1B00001B1B1B0000000000000000001B000000000000EF
:2032800000000000000000000000000000000000000000000000000000000000000000002E
:2032A00000000000000000000000000000000000000000000000000000000000000000000E
:2032C0000000000000000000000000000000000000000000000000000000000000000000EE
:2032E0000000000000000000000000000000000000000000000000000000000000000000CE
:203300001B1B1B1B1B1B1B000000000000001B1B1B1B1B1B1B1B1B000000000000001B1BC7
:203320001B1B1B1B1B1B1B000000000000001B1B1B1B1B1B1B1B1B000000000000001B1BA7
:203340001B1B1B1B1B1B1B1B0000000000001B1B1B1B1B1B1B1B1B1B0000000000001B1B51
:203360001B1B1B1B1B1B1B1B0000000000001B1B000000000000000000000000000000003F
:2033800000000000000000000000000000000000000000000000000000000000000000002D
:2033A00000000000000000000000000000000000000000000000000000000000000000000D
:2033C0000000000000000000000000000000000000000000000000000000000000000000ED
:2033E0000000000000000000000000000000000000000000000000000000000000000000CD
:203400001B1B1B1B1B1B1B1B00000000000000001B1B1B1B1B1B1B1B0000000000000000FC
:203420001B1B1B1B1B1B1B1B00000000000000001B1B1B1B1B1B1B1B0000000000000000DC
:203440001B1B1B1B1B1B1B1B00000000000000001B1B1B1B1B1B1B1B0000000000000000BC
:203460001B1B1B1B1B1B1B1B00000000000000000000000000000000000000000000000074
:2034800000000000000000000000000000000000000000000000000000000000000000002C
:2034A00000000000000000000000000000000000000000000000000000000000000000000C
:2034C0000000000000000000000000000000000000000000000000000000000000000000EC
:2034E0000000000000000000000000000000000000000000000000000000000000000000CC
:203500000000000000000000000000000000000000000000000000000000000000000000AB
:2035200000000000000000000000000000000000000000000000000000000000000000008B
:2035400000000000000000000000000000000000000000000000000000000000000000006B
:2035600000000000000000000000000000000000000000000000000000000000000000004B
:2035800000000000000000000000000000000000000000000000000000000000000000002B
:2035A00000000000000000000000000000000000000000000000000000000000000000000B
:2035C0000000000000000000000000000000000000000000000000000000000000000000EB
:2035E0000000000000000000000000000000000000000000000000000000000000000000CB
:203600000000000000000000000000000000000000000000000000000000000000000000AA
:2036200000000000000000000000000000000000000000000000000000000000000000008A
:2036400000000000000000000000000000000000000000000000000000000000000000006A
:2036600000000000000000000000000000000000000000000000000000000000000000004A
:20368000000000000000000003030000000000000000000000000000031F0F0000000000F3
:2036A00000000000000000000D040D0000000000000000000000000019190419000000009D
:2036C0000000000000000000000F0D040D030F0D000000000000000000000F0D0304040F68
:2036E00000000000000000000000030404030F00000000000000000000031F040300000084
:203700000000000000000000000000000000000000000000000000000000000000000000A9
:20372000000000000000000000000000000000000000000000000000000000000000000089
:20374000000000000000000000000000000000000000000000000000000000000000000069
:20376000000000000000000000000000000000000000000000000000000000000000000049
:20378000000000000000000000000000000000000000000000000000000000000000000029
:2037A0000003000000000000000000000000000000030F00000000000000000000000000F4
:2037C000000D1F0F0000000F0300000000000000000D040F000D031F0F000000000000003E
:2037E00000000F040F1F040F00000000000000000000000F04040F0000000000000000004F
:203800000000000000000000000F04040F0000000000000000000000000F04040300000068
:20382000000000000000000000000F0D0D030000000000000000000000000F040D0F00002D
:20384000000000030F00000F0300000F0D0F00000000000F1F0F03040F00000F0D0D03009A
:20386000000000030D040F040D000F0D0D030F0000030D0F0D040D041903030303030F035E
:20388000000F1F0404030F0404030F030303030300000F0F030000030D04040F0303030363
:2038A00000000000000000000F03040D0F0D030300000000000000000003041F1F0D03036B
:2038C0000000000000000000000003041F1F1F1F000000000000000000000F0D041F1F1FE8
:2038E0000000000000000000000000030304040400000000000000000000000F030D04048F
:203900000000000019040F000000000000000000000D0F0F0F0D0F00000000000000000025
:20392000000F1F04040D0F00000000000000000000000F0F1F0D03030F00000000000000D6
:203940000000030D040300031F03000F0300000000000F19040F000F040D0F1F0F00000081
:2039600000030404030000030D04040300000000030F1F040F03000F190D0300000000009F
:203980000F1F04040F0F0F0D0D030000000000000304040D0F03030D03000000000000006A
:2039A0000D04040D0303030300000000000000000D040D03030303000000000000000000AF
:2039C0001F1F030304030F000000000000000000040404041F03000000000000000000005B
:2039E000040404040D0F000000000000000000000404040D0D0D0300000000000000000065
:203A00000000000000000000000000000000000000000000000000000000000000000000A6
:203A2000000000000000000000000000000000000000000000000000000000000000000086
:203A4000000000000000000000000000000000000000000000000000000000000000000066
:203A6000000000000000000000000000000000000000000000000000000000000000000046
:203A80000000000000000000000000000000000000000000000000000000000000000F0314
:203AA00000000000000000030F0000000003040F000000000000000F1F0F0000000F040F7F
:203AC00000000000000000030F190F000F040D000000000000030F0F0D04190D0F04190008
:203AE00000000000000F1F0404030F040D040F000000000000000F0F0300000F0F04040310
:203B00000003030000000000000000000000000000031F0F0000000000000000000000006E
:203B2000000F040F000000000000030000000000000304040F0000000000030F0000000034
:203B400000000F0D040D0D190D00031F190000000000000F0D0304040F000F040F000F0D56
:203B6000000000030404030F0000000F040F1F040000031F04030000000000000F0404198A
:203B800000000F04040F000000000000000F040D00000F040403000000000D0F000F0D0F7E
:203BA0000000000F0404030000000F1F04040D0F0000000F040D0F000000000F0F1F0D0F11
:203BC000000000030D0D030000000000000F0404000000000F0D0D0300000000000F040D62
:203BE000000000000F040D0F00000000000304030F000000000F0D0F000000000304040D3A
:203C00000000000000000000000000000000000000000000000000000000000000000000A4
:203C2000000000000000000000000000000000000000000000000000000000000000000084
:203C40000F0300000000000000000000000000001F0F000000000F03000000000000000012
:203C60000F00000000031F03000000000000000000000000000F04040F00000000000000EA
:203C80000000000000030F0D030D0F000000000000000000000F0404041F1F0F000000007E
:203CA000000000000F19040D0D0F030300000000000000000D04040F000000000000000085
:203CC0000F00000319040F0000000000000000000F00000F1F04030F030000000000000050
:203CE0000300000F040D041F03000000000000000000000304030F0300000000000000005F
:203D000000000000000000000000000000030D040000000000000000000000000000000F80
:203D2000000000000000000000000000000000000000000000000000000000000000000083
:203D4000000000000000000000000000000000000000000000000000000000000000000063
:203D6000000000000000000000000000000000000000000000000000000000000000000043
:203D8000000000000000000000000000000000000000000000000000000000000000000023
:203DA000000000000000000000000000000000000000000000000000000000000000000003
:203DC0000000000000000000000000000000000000000000000000000000000000000000E3
:203DE0000000000000000000000000000000000000000000000000000000000000000000C3
:203E00001F0F0000000F0D0D030000000F04040F04040D000F0D0D030F00000319040300AF
:203E20000D040F030F0303030F03030F1F040F030F0D040F030F030303030F1F04040F0F4D
:203E4000000F0D0404030F03030D0304040D0F0300000F04040D0F0303030D04040D03038B
:203E600000000003041F1F0D03030D040D0303030000000F03041F1F1F1F1F1F03030403E6
:203E8000000000000D0D041F1F1F040404041F0D000000000F03040404040404040D0D190A
:203EA000000000000F030D04040404040D0D030D0000000F0D0303030D0D0D030303190D2A
:203EC0000000000F190D030303030303030D0D0F00000F190D0D0D040D0303030303190FD8
:203EE00000000F04040D0D04040D0303030D0D0300030D04040D0404040D0303030D0300FF
:203F00000000031F040F0000000000000000000000000F040D0F000000000000000000003D
:203F2000000F04040D19000000000000000000000F0D0D030F000000000000000000000009
:203F4000030D0D0F00000000000000000000000003030F0000000000000000000000000020
:203F600003030300000000000000000000000000030F000000000000000000000000000026
:203F8000030F00000000000000000000000000000F00000000000000000000000000000000
:203FA0000F0000000000000000000000000000000F000000000000000000000000000000E3
:203FC0000000000000000000000000000000000000000000000000000000000000000000E1
:203FE0000000000000000000000000000000000000000000000000000000000000000000C1
:204000000D0D0D0D0D0D0D0D0D0D0D0F030304040D0D0D0D0D0D0D0D0D0D0D0D0D0D040436
:204020000D0D0D0D0D0D0D0D0D0D03190D0D04040D0D0D0D0D0D0D0D0D0D0F04040D040412
:204040000D0D0D0D0D0D0D0D0D0F0D0D040D0D040D0D0D0D0D0D0D0F0D04041F1F040D0DC5
:204060000D0D0D0D0D10041F1F040D0D1F1F1F1F0D0D0D0D0F191F1F0E0E1919040404041B
:204080000D0D0D030303030E0E030D030404040D0D0D0D0D0D0E0E0E0E030D041F04040DE4
:2040A0000D0D0D0D0D0D0E0E03041F04040D0D0F0D0D0D0D0D0D0D0D1F1F040D0D0D0F0E51
:2040C0000D0D0D0D0D0D0D0D0D030D030D0E0E0E0D0D0D0D0D0D0D0D0D0D0D0D0D0D0D0D51
:2040E0000D0D0D0D0D0D0D0D0D0D0D0D0D0D0D0D0D0D0D0D0D0D0D0D0D0D0D0D0D0D0D0D20
:2041000004040D03190D0F0D0D0D0D0D0D0D0D0D040303190D030F0D0D0D0D0D0D0D0D0D26
:20412000040D0D03030D0F0D0D0D0D0D0D0D0D0D040D0D0303030F0E0E0D0D0D0D0D0D0D1D
:204140000D0D03030303030F100D0D0D0D0D0D0D0D0303030D03030F0F0E0D0D0D0D0D0D19
:2041600004040D0D0D030D0D0D030F0E0D0D0D0D0D040D030303030D030303030E0D0D0D1A
:20418000031F1F040D0303030D030E0F0E0E0D0D0F1F1F1F040D03030E0E0E0E0E0D0D0D71
:2041A0000F0D041F1F1F0F0F0E0E0D0D0D0D0D0D0E030F040D1F1F030D0D0D0D0D0D0D0D20
:2041C0000E0E0E0E0D030D030D0D0D0D0D0D0D0D0D0D0D0D0D0D0D0D0D0D0D0D0D0D0D0D4F
:2041E0000D0D0D0D0D0D0D0D0D0D0D0D0D0D0D0D0D0D0D0D0D0D0D0D0D0D0D0D0D0D0D0D1F
:204200000D0D0D0D0D0D0D0D0D0D0D0D0D0D0D0D0D0D0D0D0D0D0D0D0D0D0D0D0D0D0D0DFE
:204220000D0D0D0D0D0D0D0D0D0D0D0D0D0D0D0D0D0D0D0D0D0D0D0D0D0D0D0D0D0D0D0DDE
:204240000D0D0D0D0D0D0D0D0D0D0D0D0D0D0F030D0D0D0D0D0D0D0D0D0D0D0D0D0F0D1FB2
:204260000D0D0D0D0D0D0D0D0D0D0D10041F1F040D0D0D0D0D0D0D0D0D0D0F0F1F1F1F0E4E
:204280000D0D0D0D0D0D0D0D0D030303030E0D0E0D0D0D0D0D0D0D0D0D0D0D0E0E0E0E0E9F
:2042A0000D0D0D0D0D0D0D0D0D0D0D0D0D0E0E030D0D0D0D0D0D0D0D0D0D0D0D0D0D0D0D66
:2042C0000D0D0D0D0D0D0D0D0D0D0D0D0D0D0D0D0D0D0D0D0D0D0D0D0D0D0D0D0D0D0D0D3E
:2042E0000D0D0D0D0D0D0D0D0D0D0D0D0D0D0D0D0D0D0D0D0D0D0D0D0D0D0D0D0D0D0D0D1E
:204300000D0F041F040D0404040D0303030D0F0D0D0F041F04040404040D03030D0D0F0D66
:204320000F0404040D0404040D0D03030D0F0D0D030D04040D0404040D0D0303030F0D0D76
:20434000040D0D040D0D040D0D03030303030F0E04041F1F040D0D0D0303030D03030F0F2C
:20436000041919191F1F1F04040D0D0D030D0D0D0D0D0404040D030D0404030303030D03D1
:204380000D041F04040D030304041F030303030D1F04040D0D0F0F030D04041F0303030EE5
:2043A000040D0D0D0F0E0E03030D0404040F0F0E0D030D0E0E0E0E0E0E0E030D041F030D9A
:2043C0000D0D0D0D0D0D0D0E0E0E0E0D030D030D0D0D0D0D0D0D0D0D0D0D0D0D0D0D0D0D4D
:2043E0000D0D0D0D0D0D0D0D0D0D0D0D0D0D0D0D0D0D0D0D0D0D0D0D0D0D0D0D0D0D0D0D1D
:204400000D0D0D0D0D0D0D0D0D0D0D0D0D0D0D0D0D0D0D0D0D0D0D0D0D0D0D0D0D0D0D0DFC
:204420000D0D0D0D0D0D0D0D0D0D0D0D0D0D0D0D0D0D0D0D0D0D0D0D0D0D0D0D0D0D0D0DDC
:204440000D0D0D0D0D0D0D0D0D0D0D0D0D0D0D0D0E0D0D0D0D0D0D0D0D0D0D0D0D0D0D0DBB
:204460000D0F0E0D0D0D0D0D0D0D0D0D0D0D0D0D0303030E0D0D0D0D0D0D0D0D0D0D0D0DB6
:20448000030E0F0E0E0D0D0D0D0D0D0D0D0D0D0D0E0E0E0E0D0D0D0D0D0D0D0D0D0D0D0D7D
:2044A0000E0D0D0D0D0D0D0D0D0D0D0D0D0D0D0D0D0D0D0D0D0D0D0D0D0D0D0D0D0D0D0D5B
:2044C0000D0D0D0D0D0D0D0D0D0D0D0D0D0D0D0D0D0D0D0D0D0D0D0D0D0D0D0D0D0D0D0D3C
:2044E0000D0D0D0D0D0D0D0D0D0D0D0D0D0D0D0D0D0D0D0D0D0D0D0D0D0D0D0D0D0D0D0D1C
:204500000D0D0D0D0D0D0D0D0D0D0D0D0D0D0D0D0D0D0D0D0D0D0D0D0D0D0D0D040404041F
:204520000D0D0D0D0D0D0D0D0D0D0D0D202020200D0D0D0D0D0D0D0D0D0D0D20050505059C
:204540000D0D0D0D0D0D0D0D0D0D2005202020200D0D0D0D0D0D0D0D0D0D20052005040460
:204560000D0D0D0D0D0D0D0D0E0F2005202020200D0D0D0D0D0D0D0C0F0404200505040461
:204580000D0D0D0D0D0D0E0F04040404200505050D0D0D0D0D0D0E0E0E04040404040404DD
:2045A0000D0D0D0D0D0D0D0D0E0F040D050404040D0D0D0D0D0D0D0D0F04040D040F0D0F99
:2045C0000D0D0D0D0D0D0D0D100F100D0E0E0D0E0D0D0D0D0D0D0D0D0D0D0D0D0D0D0D0D30
:2045E0000D0D0D0D0D0D0D0D0D0D0D0D0D0D0D0D0D0D0D0D0D0D0D0D0D0D0D0D0D0D0D0D1B
:204600000D0D0D0D0D0D0D0D0D0D0D0D0D0D0D0D0F0F0D0D0D0D0D0D0D0D0D0D0D0D0D0DF6
:2046200020200F0D0D0D0D0D0D0D0D0D0D0D0D0D0505200F0D0D0D0D0D0D0D0D0D0D0D0DAD
:2046400020200505040D0D0D0D0D0D0D0D0D0D0D050504050F0D0D0D0D0D0D0D0D0D0D0DCC
:20466000050504050F0E0D0D0D0D0D0D0D0D0D0D0404050404100E0D0D0D0D0D0D0D0D0DE0
:2046800005050404040F100D0D0D0D0D0D0D0D0D0404040404040F0D0D0D0D0D0D0D0D0DD4
:2046A000040404040F0E0E0D0D0D0D0D0D0D0D0D0F0D0404040F0E0D0D0D0D0D0D0D0D0D90
:2046C0000E0D100F0F040E0D0D0D0D0D0D0D0D0D0D0D0D0D0D0D0D0D0D0D0D0D0D0D0D0D3A
:2046E0000D0D0D0D0D0D0D0D0D0D0D0D0D0D0D0D0D0D0D0D0D0D0D0D0D0D0D0D0D0D0D0D1A
:204700000D0D0D0D0D0D0D0D0D0D0D0D0D0D0D0D0D0D0D0D0D0D0D0D100D0D0D0D0D0D0DF6
:204720000D0D0D0D0D0D0D0D100E0D0D0D0D0D0D0D0D0D0D0D0D0D0D0E0E0D0D0D0D0D0DD3
:204740000D0D0D0D0D05050501011B1B1B0D0D0D0D0D0D0D051C051C051B1C1B1C1B0D0D71
:204760000D0D0D051C051C051C1C1B1C1B1C1B0D0D0D051C051C1C051C1C1B1C1C1B1C1BA3
:204780000D0D051C052121051C1C1B21211B1C1B0D0D051C051C21051C1C1B211C1B1C1B47
:2047A0000D0D051C051C1C051C1C1B1C1C1B1C1B0D0D051C211C21051C1C1B211C211C1B19
:2047C0000D0D051C052121211C212121211B1C1B0D0D051C051C211C21211C211C1B1C1BBE
:2047E0000D0D0D051C051C1C051B1C1C1B1C1B0D0D0D0D0D1B1B1B1B1B1B1B1B1B1B0D0D21
:20480000000000000000000000000000000000000000000000000000000000000000000098
:20482000000000000000000000000000000000000000000000000010000000000000000068
:2048400000000000000000100E000000000000000000000005050501011B1B1B00000000D8
:20486000000000051C1C051C1C1B1C1C1B000000000000051C051C1C1C1C1B1C1B00000068
:204880000000051C1C05211C1C211B1C1C1B00000000051C1C21211C1C21211C1C1B0000A2
:2048A0000000051C1C051C1C1C1C1B1C1C1B00000000051C1C2121212121211C1C1B000082
:2048C0000000051C1C05212121211B1C1C1B00000000051C1C051C1C1C1C1B1C1C1B000084
:2048E000000000051C1C051C1C1B1C1C1B000000000000001B1B1B1B1B1B1B1B00000000F8
:20490000000000000000000000000000000000000000000000000000000000000000000097
:20492000000000000000000000000000000000000000000000000000000000000000000077
:20494000000000000000000000000000000000000000000000000000000000000000000057
:20496000000000000000000000000000000000000000000000000000000000000000000037
:20498000000000000000000000000000000000000000000000000000000000000000000017
:2049A0000000000000000000000000000000000000000000000000000000000000000000F7
:2049C0000000000000000000000000000000000000000000000000000000000000000000D7
:2049E0000000000000000000000000000000000000000000000000000000000000000000B7
:204A0000212121212121212121212121212121212121212121212121212121212121212176
:204A2000212121212121212121212121212121212121212121212121212121212121212156
:204A4000212121212121212121212121212121212121212121212121212121212121212136
:204A6000212121212121212121212121212121210F0F0F0F0F0F0F0F0F0F0F0F0F0F0F0F36
:204A8000070707070707070707070707070707070707070707070707070707070707070736
:204AA000070707070707070707070707070707070707070707070707070707070707070716
:204AC0002020202020202020202020202020202020202020202020202020202020202020D6
:204AE000202020202020202020202020202020200F0F0F0F0F0F0F0F0F0F0F0F0F0F0F0FC6
:204B0000212121212121212121212121212121212121212121212121212121212121212175
:204B2000212121212121212121212121212121212121212121212121212121212121212155
:204B4000212121212121212121212121212121212121212121212121212121212121212135
:204B6000212121212121212121212121212121210F0F0F0F0F0F0F0F0F0F0F0F0F0F0F2024
:204B80000707070707070707070707070707070F0707070707070707070707070707070F25
:204BA0000707070707070707070707070707070F0707070707070707070707070707070F05
:204BC0002020202020202020202007070707070F2020202020202020202007070707070FF1
:204BE0002020202020202020200F07070707070F0F0F0F0F0F0F0F0F0F0F07070707070F8C
:204C0000200F070F200F070F200F070F200F070F0606060606060606060606060606060620
:204C2000202020202020202020202020202020200F0F0F0F0F0F0F0F0F0F0F0F0F0F0F0F84
:204C4000202020202020202020202020202020202020202020202020202020202020202054
:204C6000202020202020202020202020202020202020202020202020202020202020202034
:204C8000202020202020202020202020202020202020202020202020202020202020202014
:204CA00006062006060606060606060606060606060606060606060606060606060606061A
:204CC000060606060606060606060606060606060606060606060606060606060606060614
:204CE0000606060606060606060606060606060606060606060606060606060606060606F4
:204D0000200F070F200F070F200F07070707070F0606060606060606060F07070707070F31
:204D20002020202020202020200F07070707070F0F0F0F0F0F0F0F0F0F0F07070707070F4A
:204D40002020202020202020200F07070707070F2020202020202020200F07070707070F91
:204D60002020202020202020200F07070707070F2020202020202020200F07070707070F71
:204D80002020202020202020200F07070707070F2020202020202020200F07070707070F51
